:020000040000FA
:100000006AEF1DF0C96E120063EF19F000000000E6
:10001000FF00000000000000C3EF1BF0D9CFE5FF98
:10002000E1CFD9FF00C0E5FF01C0E5FF02C0E5FF59
:1000300003C0E5FF04C0E5FF05C0E5FF06C0E5FF1E
:1000400007C0E5FF08C0E5FF09C0E5FF0AC0E5FFFE
:100050000BC0E5FF0CC0E5FF0DC0E5FF0EC0E5FFDE
:100060000FC0E5FF10C0E5FF11C0E5FF12C0E5FFBE
:1000700013C0E5FF14C0E5FF15C0E5FF16C0E5FF9E
:1000800017C0E5FF18C0E5FF19C0E5FF1AC0E5FF7E
:100090001BC0E5FF1CC0E5FF1DC0E5FF1EC0E5FF5E
:1000A000020EDBCF00F0030EDBCF01F0040EDBCF3E
:1000B00002F0050EDBCF03F0060EDBCF04F0070ED7
:1000C000DBCF05F0080EDBCF06F0090EDBCF07F023
:1000D0000A0EDBCF08F0096A0A6A02C00DF00D5063
:1000E000800A0DE102500401A26F0150A16F00507F
:1000F000A06F040E016EA00E006E800E026E03C093
:10010000E9FF04C0F3FF0550A3EC1DF00B6E0B508C
:10011000D8B4FCEF03F00B50250A02E0E3EF03F044
:100120000C6A0D6A0E6A0F6A106A0A0E116E126A64
:10013000136A146A200E156E1668176A2B0E186E55
:10014000032A02E3044A052A03C0E9FF04C0F3FFBF
:100150000550A3EC1DF0196E250A13E11950E56E48
:100160000250E56E0150E56E0050E56EA1EC11F015
:10017000040EE126094A0A2A032A02E3044A052A50
:10018000BED71950300A06E1300E156E032A02E37D
:10019000044A052A03C0E9FF04C0F3FF0550A3EC9D
:1001A0001DF02D0A06E1010E146E032A02E3044A33
:1001B000052A03C0E9FF04C0F3FF0550A3EC1DF0BE
:1001C000200A08E1010E176E200E186E032A02E3C2
:1001D000044A052A03C0E9FF04C0F3FF0550A3EC5D
:1001E0001DF02B0A06E1010E176E032A02E3044AF2
:1001F000052A03C0E9FF04C0F3FF0550A3EC1DF07E
:10020000196E800F4F0F2DE31950800F460F29E212
:1002100003C019F004C01AF005C01BF019C0E9FFB3
:100220001AC0F3FF1B50A3EC1DF01C6E800F500F83
:1002300012E31C50800F460F0EE213500A0DF3CF4D
:100240001DF01D501C26D00E1C24136E192A02E32B
:100250001A4A1B2AE3D719C003F01AC004F01BC0C6
:1002600005F003C0E9FF04C0F3FF0550A3EC1DF047
:100270002E0A2EE1032A02E3044A052A166A03C065
:1002800019F004C01AF005C01BF019C0E9FF1AC02C
:10029000F3FF1B50A3EC1DF01C6E800F500F12E3F8
:1002A0001C50800F460F0EE216500A0DF3CF1DF0C2
:1002B0001D501C26D00E1C24166E192A02E31A4A61
:1002C0001B2AE3D719C003F01AC004F01BC005F0C5
:1002D00003C0E9FF04C0F3FF0550A3EC1DF0196E45
:1002E0006C0A07E1010E0C6E032A02E3044A052A98
:1002F00009D01950680A06E1010E0E6E032A02E3C6
:10030000044A052A03C0E9FF04C0F3FF0550A3EC2B
:100310001DF0750A06E1010E106E032A02E3044A7D
:10032000052A03C0E9FF04C0F3FF0550A3EC1DF04C
:10033000196E730A05E1010E0D6E200E156E3FD089
:100340001950780A03E1100E116E39D01950580A6D
:1003500005E1100E116E010E126E31D01950630AB4
:1003600002E1116A2CD019506F0A03E1080E116ED8
:1003700026D01950660A03E1010E0F6E20D01950E5
:10038000640A1DE01950690A1AE0105005E0FF0EDA
:1003900003260422052213D01950E56E0250E56EA3
:1003A0000150E56E0050E56EA1EC11F0040EE1265F
:1003B000094A0A2A032A02E3044A052AA0D60D5054
:1003C00021E00650030F0D6E000E0720196E000E7F
:1003D00008201A6E0DC006F019C007F01AC008F008
:1003E000FD0E0D26FF0E19221A220DC0E9FF19C0BD
:1003F000F3FF1A507FEC1CF00D6EF3CF19F0F4CF21
:100400001AF032D10F50D8B43ED00650040F0F6E00
:10041000000E07201B6E000E08201C6E0FC006F099
:100420001BC007F01CC008F0FC0E0F26FF0E1B229D
:100430001C220FC0E9FF1BC0F3FF1C50E8EC1BF0AF
:100440000F6EF3CF1BF0F4CF1CF0E9CF1DF0040EBC
:10045000196E000E0D6E800E1A6E1650E56E240E8B
:10046000E56E040EE56E000EE56E1D50E56E1C5047
:10047000E56E1B50E56E0F50E56E17EC09F0080EA7
:10048000E1261668F1D016680C5023E00650040FE0
:100490000C6E000E07200F6E000E08201B6E0CC0A5
:1004A00006F00FC007F01BC008F0FC0E0C26FF0E74
:1004B0000F221B220CC0E9FF0FC0F3FF1B50E8EC1A
:1004C0001BF00C6EF3CF0FF0F4CF1BF0E9CF1CF054
:1004D0006AD00E5032E00650020F0E6E000E07205A
:1004E0001D6E000E08201E6E0EC006F01DC007F027
:1004F0001EC008F0FE0E0E26FF0E1D221E220EC08C
:10050000E9FF1DC0F3FF1E503EEC1DF00E6E0EC045
:100510000CF0E86A0EBEFF0E0F6E1B6E1C6E1150C3
:100520000A0A03E11050D8B43ED00C500E6E0EC033
:100530000CF00F6A1B6A1C6A36D00650020F0E6E52
:10054000000E07201D6E000E08201E6E0EC006F065
:100550001DC007F01EC008F0FE0E0E26FF0E1D2265
:100560001E220EC0E9FF1DC0F3FF1E503EEC1DF021
:100570000E6EF3CF1DF00EC00CF01DC00FF0E86A38
:100580001DBEFF0E1B6E1C6E11500A0A02E11050B8
:100590000AE00C500E6E0F501D6E0EC00CF01DC008
:1005A0000FF01B6A1C6A040E196E010E0D6E800E90
:1005B0001A6E1150D8B440D0105013E01150E56EAF
:1005C000040EE56E010EE56E1C50E56E1B50E56EE7
:1005D0000F50E56E0C50E56E18EC0CF0070EE1269E
:1005E00012D01150E56E040EE56E010EE56E1C5042
:1005F000E56E1B50E56E0F50E56E0C50E56E18EC85
:1006000015F0070EE12617502FE00DC0E9FF19C0C5
:10061000F3FF1A50A3EC1DF02D0A26E0FF0E0D2665
:1006200019221A2218C0E5FF0DC0E9FF19C0F3FF17
:100630001A502FEC1EF018D00CC0E5FF0DC0E9FFDA
:1006400019C0F3FF1A502FEC1EF00D50010F0C6E65
:10065000000E19200E6E000E1A20E56A0CC0E9FF8C
:100660000EC0F3FF2FEC1EF00DC00CF019C00EF001
:100670001AC00FF013C010F0105010E00CC0E9FFCA
:100680000EC0F3FF0F50A3EC1DF0176E175006E0DD
:100690000C2A02E30E4A0F2A1006EED710C013F000
:1006A00014501EE109C00CF00AC00EF010C00FF08B
:1006B0000F5010E01550E56E0250E56E0150E56EEA
:1006C0000050E56EA1EC11F0040EE1260C4A0E2A52
:1006D0000F06EED70CC009F00EC00AF00FC013F0E1
:1006E00016C00CF00DC00DF019C00EF01AC00FF0BE
:1006F00009C010F00AC015F00DC0E9FF0EC0F3FFED
:100700000F50A3EC1DF0166E1650D8B43ED00CC09E
:1007100016F0176A161E171E1650171005E00CC0AB
:1007200016F00C06165031E00DC0E9FF0EC0F3FFC5
:100730000F50A3EC1DF0116E125010E01150E56E39
:10074000FBEC1CF0166EE652165004E01150166ECB
:10075000169A02D011C016F016C011F01150E56EB5
:100760000250E56E0150E56E0050E56EA1EC11F00F
:10077000040EE1260D2A02E30E4A0F2A104A152A1A
:100780001350D8B4B9D71306B7D710C009F015C0A5
:100790000AF014502BE010C00CF015C00DF013C07F
:1007A0000EF00E501FE0200EE56E0250E56E015077
:1007B000E56E0050E56EA1EC11F0040EE1260C4A46
:1007C0000D2A0E06EED70B50E56E0250E56E015075
:1007D000E56E0050E56EA1EC11F0040EE126094A29
:1007E0000A2A04D00CC009F00DC00AF0032A02E363
:1007F000044A052A7FEF00F00AC0F3FF0950E4CF56
:100800001EF0E4CF1DF0E4CF1CF0E4CF1BF0E4CFEA
:100810001AF0E4CF19F0E4CF18F0E4CF17F0E4CFEA
:1008200016F0E4CF15F0E4CF14F0E4CF13F0E4CFEA
:1008300012F0E4CF11F0E4CF10F0E4CF0FF0E4CFEA
:100840000EF0E4CF0DF0E4CF0CF0E4CF0BF0E4CFEA
:100850000AF0E4CF09F0E4CF08F0E4CF07F0E4CFEA
:1008600006F0E4CF05F0E4CF04F0E4CF03F0E4CFEA
:1008700002F0E4CF01F0E4CF00F0E4CFD9FF1200A2
:1008800005C0E5FF06C0E5FF07C0E5FF08C0E5FFBE
:1008900009C0E5FF0AC0E5FF0BC0E5FF0CC0E5FF9E
:1008A0000DC0E5FF0EC0E5FF0FC0E5FF10C0E5FF7E
:1008B00011C0E5FF12C0E5FF13C0E5FF14C0E5FF5E
:1008C00015C0E5FF16C0E5FF17C0E5FF18C0E5FF3E
:1008D00019C0E5FF1AC0E5FF1BC0E5FF1CC0E5FF1E
:1008E0001DC0E5FF000E00B0050F066AF60F02E31B
:1008F000062AFCD70A0F056E042E03D0FB0F01E376
:10090000062A065000B0020F00B2050F076AF60F64
:1009100002E3072AFCD70A0F066E042E03D0FB0F52
:1009200001E3072A075000B0060F00B2020F00B41F
:10093000050F086AF60F02E3082AFCD70A0F076EB4
:10094000042E03D0FB0F01E3082A085000B2010F68
:1009500000B4020F00B6050F096AF60F02E3092A78
:10096000FCD70A0F086E042E03D0FB0F01E3092AFF
:10097000095000B0090F00B2080F00B4060F00B60E
:10098000020F00B8050F0A6AF60F02E30A2AFCD725
:100990000A0F096E042E03D0FB0F01E30A2A0A5046
:1009A00000B0030F00B2070F00B4050F00B6010F2F
:1009B00000B8020F00BA050F0B6AF60F02E30B2A0C
:1009C000FCD70A0F0A6E042E03D0FB0F01E30B2A9B
:1009D0000B5000B0050F00B4010F00B6030F00B8B4
:1009E000060F00BA020F00BC050F0C6AF60F02E3F7
:1009F0000C2AFCD70A0F0B6E042E03D0FB0F01E369
:100A00000C2A0C5000B0070F00B2050F00BA010FFE
:100A100000BC020F00BE050F0D6AF60F02E30D2A9F
:100A2000FCD70A0F0C6E042E03D0FB0F01E30D2A36
:100A30000D5000B0070F00B2050F00B4010F00B653
:100A4000020F00B8040F00BA080F00BC060F00BE6A
:100A5000020F01B0050F0E6AF60F02E30E2AFCD753
:100A60000A0F0D6E042E03D0FB0F01E30E2A0E5069
:100A700000B0040F00B2090F00B4090F00B6080F50
:100A800000B8060F00BA020F00BC050F00BE010F30
:100A900001B0020F01B2050F0F6AF60F02E30F2A31
:100AA000FCD70A0F0E6E042E03D0FB0F01E30F2AB2
:100AB0000F5000B0040F00B2080F00B4070F00B6CB
:100AC000050F00B8010F00BA030F00BC060F00BEEF
:100AD000030F01B0060F01B2020F01B4050F106A37
:100AE000F60F02E3102AFCD70A0F0F6E042E03D074
:100AF000FB0F01E3102A105000B0060F00B2020FE6
:100B000000B4050F00B6010F00B8030F00BA060FBE
:100B100000BC020F00BE050F01B2010F01B4020FAD
:100B200001B6050F116AF60F02E3112AFCD70A0F6E
:100B3000106E042E03D0FB0F01E3112A115000B0F8
:100B4000040F00B2090F00B4080F00B6070F00B879
:100B5000040F00BA080F00BC070F00BE040F01B05D
:100B6000090F01B2080F01B4060F01B6020F01B858
:100B7000050F126AF60F02E3122AFCD70A0F116E54
:100B8000042E03D0FB0F01E3122A125000B4010F10
:100B900000B6030F00B8070F00BA040F00BC090F1E
:100BA00000BE090F01B0080F01B2070F01B4050F15
:100BB00001B6010F01B8020F01BA050F136AF60F53
:100BC00002E3132AFCD70A0F126E042E03D0FB0F88
:100BD00001E3132A135000B0060F00B2020F00B455
:100BE000040F00B6080F00B8060F00BA030F00BCD0
:100BF000060F00BE030F01B0070F01B2050F01B4CD
:100C0000010F01B6030F01B8060F01BA020F01BCB4
:100C1000050F146AF60F02E3142AFCD70A0F136EAD
:100C2000042E03D0FB0F01E3142A145000B0090F67
:100C300000B2090F00B4080F00B6060F00B8030F8A
:100C400000BA070F00BC040F00BE090F01B0080F67
:100C500001B2070F01B4050F01BA010F01BC020F69
:100C600001BE050F156AF60F02E3152AFCD70A0F1D
:100C7000146E042E03D0FB0F01E3152A155000B0AB
:100C8000050F00B2010F00B4030F00B6070F00B844
:100C9000050F00BC010F00BE020F01B0050F01B22D
:100CA000010F01B4030F01B6070F01B8040F01BA19
:100CB000080F01BC060F01BE020F02B0050F166A35
:100CC000F60F02E3162AFCD70A0F156E042E03D086
:100CD000FB0F01E3162A165000B2010F00B4020FF9
:100CE00000B6040F00B8090F00BA090F00BC080FC6
:100CF00000BE060F01B0020F01B2050F01B8010FCF
:100D000001BA020F01BC050F01BE010F02B0020FB4
:100D100002B2050F176AF60F02E3172AFCD70A0F73
:100D2000166E042E03D0FB0F01E3172A175000BAEA
:100D3000010F00BC030F00BE070F01B0050F01B487
:100D4000010F01B6020F01B8040F01BA080F01BC70
:100D5000060F01BE030F02B0060F02B2020F02B46B
:100D6000050F186AF60F02E3182AFCD70A0F176E50
:100D7000042E03D0FB0F01E3182A185001B0010F15
:100D800001B2030F01B4060F01B6020F01B8040F40
:100D900001BA080F01BC070F01BE050F02B2010F17
:100DA00002B4020F02B6050F196AF60F02E3192A00
:100DB000FCD70A0F186E042E03D0FB0F01E3192A8B
:100DC000195001B6010F01B8020F01BA040F01BC9E
:100DD000090F01BE090F02B0090F02B2080F02B4D9
:100DE000060F02B6020F02B8050F1A6AF60F02E3E9
:100DF0001A2AFCD70A0F196E042E03D0FB0F01E349
:100E00001A2A1A5001BE010F02B0030F02B2070FD7
:100E100002B4050F02B6010F02B8020F02BA050FA5
:100E20001B6AF60F02E31B2AFCD70A0F1A6E042E68
:100E300003D0FB0F01E31B2A1B5002B4010F02B6C3
:100E4000030F02B8060F02BA020F02BC050F1C6A9C
:100E5000F60F02E31C2AFCD70A0F1B6E042E03D0E8
:100E6000FB0F01E31C2A1C5002BA010F02BC020F47
:100E700002BE050F1D6AF60F02E31D2AFCD70A0FFA
:100E80001C6E042E03D0FB0F01E31D2A300FEE6E03
:100E90001B50300FEE6E1A50300FEE6E1950300F9F
:100EA000EE6E1850300FEE6E1750300FEE6E16507B
:100EB000300FEE6E1550300FEE6E1450300FEE6E98
:100EC0001350300FEE6E1250300FEE6E1150300F87
:100ED000EE6E1050300FEE6E0F50300FEE6E0E5063
:100EE000300FEE6E0D50300FEE6E0C50300FEE6E78
:100EF0000B50300FEE6E0A50300FEE6E0950300F6F
:100F0000EE6E0850300FEE6E0750300FEE6E06504A
:100F1000300FEE6E0550300FEE6E170EE4CF1DF061
:100F2000E4CF1CF0E4CF1BF0E4CF1AF0E4CF19F0CB
:100F3000E4CF18F0E4CF17F0E4CF16F0E4CF15F0CB
:100F4000E4CF14F0E4CF13F0E4CF12F0E4CF11F0CB
:100F5000E4CF10F0E4CF0FF0E4CF0EF0E4CF0DF0CB
:100F6000E4CF0CF0E4CF0BF0E4CF0AF0E4CF09F0CB
:100F7000E4CF08F0E4CF07F0E4CF06F0E4CF05F0CB
:100F8000120000C0E5FF01C0E5FF02C0E5FF03C09D
:100F9000E5FF04C0E5FF05C0E5FF06C0E5FF07C0AB
:100FA000E5FF08C0E5FF09C0E5FF0AC0E5FF0BC08B
:100FB000E5FF0CC0E5FF0DC0E5FF0EC0E5FF000E2C
:100FC00000B0010F00B2020F00B4040F00B6080F0A
:100FD00000B8060F00BA020F00BC040F00BE080FD5
:100FE00001B0060F01B2020F01B4040F01B6080FE1
:100FF00001B8060F01BA020F01BC040F01BE080FB1
:1010000002B0060F02B2020F02B4040F02B6080FBC
:1010100002B8060F02BA020F02BC040F02BE080F8C
:10102000056AF60F02E3052AFCD70A0F046E055085
:1010300000B8010F00BA030F00BC060F00BE020F7C
:1010400001B0050F01B2010F01B4020F01B6040F88
:1010500001B8090F01BA090F01BC080F01BE060F44
:1010600002B0030F02B2070F02B4040F02B6080F5A
:1010700002B8070F02BA050F066AF60F02E3062A46
:10108000FCD70A0F056E065000BE010F01B0020F1B
:1010900001B2050F01BA010F01BC030F01BE070F1A
:1010A00002B0050F02B4010F02B6020F02B8050F1D
:1010B00002BA010F02BC030F02BE060F076AF60F49
:1010C00002E3072AFCD70A0F066E075001B4010F8E
:1010D00001B6020F01B8040F01BA080F01BC060FD8
:1010E00001BE020F02B0050F02B2010F02B4020FDF
:1010F00002B6040F02B8080F02BA070F02BC040FB1
:1011000002BE080F086AF60F02E3082AFCD70A0F8E
:10111000076E085001BC010F01BE030F02B0060F9D
:1011200002B2030F02B4060F02B6020F02B8040F98
:1011300002BA090F02BC090F02BE080F096AF60FB6
:1011400002E3092AFCD70A0F086E095002B2010F08
:1011500002B4020F02B6050F02BC010F02BE030F5C
:101160000A6AF60F02E30A2AFCD70A0F096E0A5030
:1011700002B8010F02BA020F02BC040F02BE080F30
:101180000B6AF60F02E30B2AFCD70A0F0A6E0B500C
:101190000E6A0EE10A5010E1095012E1085014E104
:1011A000075016E1065018E105501AE104501CD012
:1011B0000E2A300FEE6E0A500E2A300FEE6E0950D6
:1011C0000E2A300FEE6E08500E2A300FEE6E0750CA
:1011D0000E2A300FEE6E06500E2A300FEE6E0550BE
:1011E0000E2A300FEE6E04500E2A300FEE6E0E50A7
:1011F000E4CF0EF0E4CF0DF0E4CF0CF0E4CF0BF031
:10120000E4CF0AF0E4CF09F0E4CF08F0E4CF07F030
:10121000E4CF06F0E4CF05F0E4CF04F0E4CF03F030
:10122000E4CF02F0E4CF01F0E4CF00F01200D9CF18
:10123000E5FFE1CFD9FF00C0E5FF01C0E5FF02C037
:10124000E5FF03C0E5FF04C0E5FF05C0E5FF06C0FC
:10125000E5FF07C0E5FF08C0E5FF09C0E5FF0AC0DC
:10126000E5FF0BC0E5FF020EDBCF00F0030EDBCF86
:1012700001F0040EDBCF02F0050EDBCF03F0060E0B
:10128000DBCF04F0070EDBCF05F0080EDBCF06F056
:10129000090EDBCF07F006C008F0060608500EE086
:1012A00006500424086EE86A06BEE8680520096E48
:1012B00008C0E9FF09C0EAFFEF6AEDD7005004015A
:1012C000936F0150946F0250956F0350966F93C4C3
:1012D00000F094C401F095C402F096C403F0066ACD
:1012E000086A096A800E03140A6E065007E1085066
:1012F00005E1095003E10A50800A01E012D0039E83
:1013000000500401936F0150946F0250956F035089
:10131000966F04C0E9FF05C0EAFF2D0EEF6E044A88
:10132000052A0401953596357E08006E9351016EAD
:101330009451026E7F0E9515036E066A038E086A3D
:10134000096A0A6A0B6A005019E0D88000AED8908A
:101350000EE30850082609360A360B3603BE08800D
:1013600001500126023603360636002AECD7D89003
:1013700006320332023201320006E5D70850091066
:101380000A100B1012E00550E56E0450E56E0B508C
:10139000E56E0A50E56E0950E56E0850E56ED0EC3A
:1013A0001AF0006E060EE12608D004C0E9FF05C061
:1013B000EAFF300EEF6E010E006E00500426E86A60
:1013C00000BEE8680522075028E004C0E9FF05C018
:1013D000EAFF2E0EEF6E002A044A052A075018086D
:1013E000E56E0550E56E0450E56E0650E56E03505F
:1013F000E56E0250E56E0150E56E3DEC1AF0016EAF
:10140000070EE1260150002607500426E86A05224F
:1014100004C0E9FF05C0EAFFEF6A0050E4CF0BF01B
:10142000E4CF0AF0E4CF09F0E4CF08F0E4CF07F00E
:10143000E4CF06F0E4CF05F0E4CF04F0E4CF03F00E
:10144000E4CF02F0E4CF01F0E4CF00F0E4CFD9FF25
:10145000120000C0E5FF01C0E5FF04017951D8B4D6
:10146000F5D09DA81DD09EA81BD00401B251040147
:10147000AF1905E1E2EC1DF00401AF6BE7D0000EFF
:101480000401B225006E016A0F0E012200C0E9FFBF
:1014900001C0EAFFEFCFABF4B22BABC4ADFFD6D0A7
:1014A0009EAAD4D0ABA205D00401B081E2EC1DF01D
:1014B000CDD0ABA405D00401B083E2EC1DF0C6D0C2
:1014C000ABA03ED0AECFABF4800E04017A11040184
:1014D000AB1904E10401B089AB96B8D00401AB515B
:1014E00004E0AB5104017A1927E10401B099AB96ED
:1014F0000401AB5103E00401B09702D00401B087AE
:10150000ABC4B4F4ADC4B5F40401AD050401B66FC9
:10151000600E0401B525006E016A000E012200C0B4
:10152000E9FF01C0EAFFABC4EFFFB52BB551800A5C
:1015300002E10401B56B8AD00401B099AB8686D074
:10154000AECFABF40401B0A919D0800E04017A111A
:101550000401AB1911E18B909D9AAB980401AF5136
:1015600004E1AD6AE2EC1DF007D000CFADFF010E43
:101570000401B26F9D886AD0AB8668D00401AB517C
:101580000401B4270401B5510401B6191BE104019B
:10159000B4510CE1B5C4ADF40401B0B712D08B90D6
:1015A0009D9AAB98AD6AE2EC1DF00BD00401B085BA
:1015B000B0B707D08B909D9AAB98010EAD6EE2EC60
:1015C0001DF044D00401B5510401AE1908E1040135
:1015D000AE510401AD1903E0E2EC1DF037D0ADC40B
:1015E00000F0016A004A012AE56A800EE56E0150AA
:1015F000E56E0050E56EA5EC12F0006E040EE126DB
:1016000000500401AC6F0401B5190CE11F0E040178
:10161000AB150401B66FB62BB62B0401AD51040116
:10162000B627B69FB5C400F00401B52B016A600E61
:101630000026000E012200C0E9FF01C0EAFFABC492
:10164000EFFFB551800A02E10401B56BE4CF01F070
:10165000E4CF00F0120000C0E5FF01C0E5FF02C0CA
:10166000E5FF03C0E5FF04C0E5FF05C0E5FF06C0D8
:10167000E5FF07C0E5FF08C0E5FF09C0E5FF0AC0B8
:10168000E5FF006A016A040E015CD8B0B9D0230EF0
:1016900004017D25026E036A0F0E032202C0E9FFDA
:1016A00003C0EAFFEFCF02F00250FF0A01E1A1D030
:1016B00004017D39E8441F0B026EA70E0224036E5D
:1016C000046A040E042203C0E9FF04C0EAFFEFCF5E
:1016D00003F0070E7D15046E010E056E000E066EFA
:1016E000045006E0E86CD89005360636010FFCE39E
:1016F000076A0550031606500716035005E1075008
:1017000003E1036A032A01D0036A0350D880E86624
:10171000D890036A0336076AA50E0226040E072234
:1017200002C0E9FF07C0EAFFEFCF08F008C009F0E8
:101730000A6A095005160A500616055005E10650BA
:1017400003E1056A052A01D0056A0550D880E866DC
:10175000D890056A05360350051801E14AD00350B8
:1017600012E0010E056E045005E0E86CD8900536D5
:10177000010FFDE30550081202C0E9FF07C0EAFFB0
:1017800008C0EFFF17D002C0E9FF07C0EAFFEFCFA4
:1017900005F0010E066E045005E0E86CD8900636A0
:1017A000010FFDE3061C051602C0E9FF07C0EAFFB2
:1017B00005C0EFFF035003E1036A032A01D0036A67
:1017C000026A03BE02687DC404F00250E56E035055
:1017D000E56EE56A0450E56E000EE56E2F0EE56ECF
:1017E000480EE56E30EC18F0070EE126012A01C024
:1017F00000F004017D2B100E7D5DD8A044D77D6BD9
:101800000050E4CF0AF0E4CF09F0E4CF08F0E4CFD1
:1018100007F0E4CF06F0E4CF05F0E4CF04F0E4CF26
:1018200003F0E4CF02F0E4CF01F0E4CF00F01200C7
:10183000D9CFE5FFE1CFD9FF00C0E5FF01C0E5FF4B
:1018400002C0E5FF03C0E5FF04C0E5FF05C0E5FFFA
:1018500006C0E5FF07C0E5FF08C0E5FF09C0E5FFDA
:101860000AC0E5FF0BC0E5FF0CC0E5FF0DC0E5FFBA
:101870000EC0E5FF0FC0E5FF020EDBCF00F0030E48
:10188000DBCF01F0040EDBCF02F0050EDBCF03F05F
:10189000060EDBCF04F0070EDBCF05F0080EDBCF22
:1018A00006F0200E076E086A06C009F00A6A0B6A85
:1018B0000C6AE56AE56AE56A0950E56E0350E56E73
:1018C0000250E56E0150E56E0050E56EE2EC0EF060
:1018D0000D6E080EE126300E0D263A0E0D5C05E366
:1018E0000D500E6E270E0E240D6EFF0E07260822D9
:1018F000E00E07240E6E000E08200F6E0EC0E9FFEA
:101900000FC0EAFF0DC0EFFF0C50E56E0B50E56E07
:101910000A50E56E0950E56E0350E56E0250E56E23
:101920000150E56E0050E56E02EC10F0006EF3CF52
:1019300001F0F4CF02F0E9CF03F0080EE1260050E9
:10194000011002100310D8A4AFD707C000F008C0E0
:1019500001F004C002F005C003F000C004F001C0B3
:1019600005F0004A012AE00E0426000E052204C0FC
:10197000E9FF05C0EAFFEFCF04F002C0E9FF03C0B2
:10198000EAFF04C0EFFF024A032A000E015C02E1F5
:10199000200E005CE2E302C0E9FF03C0EAFF000E94
:1019A000EF6AE4CF0FF0E4CF0EF0E4CF0DF0E4CF18
:1019B0000CF0E4CF0BF0E4CF0AF0E4CF09F0E4CF71
:1019C00008F0E4CF07F0E4CF06F0E4CF05F0E4CF71
:1019D00004F0E4CF03F0E4CF02F0E4CF01F0E4CF71
:1019E00000F0E4CFD9FF120000C0E5FF01C0E5FF21
:1019F00002C0E5FF03C0E5FFFBEC1AF0006EF3CF79
:101A000001F0F4CF02F0E9CF03F004018E51005E43
:101A10008F51015A9051025A9151035A039E3F0E21
:101A2000035C08E1FF0E025C05E1FF0E015C02E1D0
:101A3000FF0E005C16E27EEC1EF0FBEC1AF0F3CF1A
:101A400001F0F4CF02F0E9CF03F0500F04018E6FE4
:101A5000460E01208F6F000E0220906F000E0320B3
:101A6000916F080E04017C5DD8B062D00F014EB1B9
:101A70005FD004017C51020DF450016EF3CF00F0F1
:101A8000240E0026040E012200C0E9FF01C0EAFF77
:101A9000EECF02F0EFCF03F00250031002E17C2BF7
:101AA00047D004017C51030DF450036EF3CF02F0D4
:101AB0005C0E0226040E032202C0E9FF03C0EAFF07
:101AC000EECF97F4EECF98F4EFCF99F4810E7C250A
:101AD000026E036A040E032202C0E9FF03C0EAFF9C
:101AE000EFCFBAF400C0E9FF01C0EAFFEECF00F08B
:101AF000EFCF01F0001E011E01500F01506F00508A
:101B00000F014F6F7E9204C0E5FFF2CF04F0F29E0A
:101B100004019751E96E9851EA6E0401BA51EF122F
:101B20000F014E8104BEF28EE4CF04F004017C2B41
:101B3000E4CF03F0E4CF02F0E4CF01F0E4CF00F013
:101B4000120000C0E5FF01C0E5FF02C0E5FF03C0D1
:101B5000E5FF04C0E5FF05C0E5FF006A230E002491
:101B6000016E026A0F0E022201C0E9FF02C0EAFF05
:101B7000EFCF01F00150FF0A01E178D001380F0BDF
:101B8000026E036A800E02260F0E032202C0E9FFD6
:101B900003C0EAFFEFCF02F0070E0116010E036E3D
:101BA000000E046E015006E0E86CD890033604364F
:101BB000010FFCE3056A025003160550041603509A
:101BC00005E1045003E1036A032A01D0036A0350CC
:101BD000D880E866D890036A0336035024E00038C2
:101BE000E8441F0B016E026AA70E0126040E0222B2
:101BF00001C0E9FF02C0EAFFEFCF03F0070E0014B7
:101C0000046E010E056E045005E0E86CD8900536B0
:101C1000010FFDE30550031201C0E9FF02C0EAFF16
:101C200003C0EFFF23D00038E8441F0B016E026AA7
:101C3000A70E0126040E022201C0E9FF02C0EAFF3E
:101C4000EFCF03F0070E0014046E010E056E045072
:101C500005E0E86CD8900536010FFDE3051C03167E
:101C600001C0E9FF02C0EAFF03C0EFFF002A100E27
:101C7000005CD8A073D7E4CF05F0E4CF04F0E4CF44
:101C800003F0E4CF02F0E4CF01F0E4CF00F0120063
:101C900000C0E5FF01C0E5FF02C0E5FF03C0E5FFAE
:101CA00004C0E5FF66EC1EF080EC13F08990929082
:101CB000010EE56E800EE56E0F0EE56E890EE56E87
:101CC000000EE56AB5EC14F0050EE12689929292B9
:101CD000020EE56E800EE56E0F0EE56E890EE56E66
:101CE000010EE56EB5EC14F0050EE1268994929490
:101CF000040EE56E800EE56E0F0EE56E890EE56E44
:101D0000020EE56EB5EC14F0050EE12663EC17F05B
:101D10009288800E006E0F0E016E0F0E036E380E4D
:101D2000002603500122800E026E0F0E036E800EFD
:101D3000005E0350015A0F0E046E380E0226045046
:101D400003220F0E046E800E025E0450035A02C07E
:101D5000E9FF03C0EAFFEFCF02F0029800C0E9FFFD
:101D600001C0EAFF02C0EFFF016E040EE56E800EB7
:101D7000E56E0150E56E800EE56E000EE56AAAEC98
:101D800017F0050EE126FBEC1AF0F3CF01F0F4CFCB
:101D900002F0E9CF03F0880F0401346F130E012025
:101DA000356F000E0220366F000E0320376FE4CF30
:101DB00004F0E4CF03F0E4CF02F0E4CF01F0E4CF8D
:101DC00000F01200D9CFE5FFE1CFD9FF00C0E5FF59
:101DD00001C0E5FF02C0E5FF03C0E5FF04C0E5FF69
:101DE00005C0E5FF06C0E5FF07C0E5FF08C0E5FF49
:101DF00009C0E5FF0AC0E5FF020EDBCF00F0030ECD
:101E0000DBCF01F0040EDBCF02F0050EDBCF03F0D9
:101E1000060EDBCF04F0070EDBCF05F0080EDBCF9C
:101E200006F0090EDBCF07F0086A096A0750800B3D
:101E3000E8440A6E0A501BE10450042605360636B3
:101E400007360750035C08E10650025C05E10550C7
:101E5000015C02E10450005C06E2D89007320632D1
:101E60000532043204D0092A09C008F0DFD7075030
:101E7000035C08E10650025C05E10550015C02E1EB
:101E80000450005C08E30450005E0550015A0650FF
:101E9000025A0750035AD8900732063205320432EC
:101EA00008C009F008060950E2E103C0E9FF02C0DA
:101EB000F4FF01C0F3FF0050E4CF0AF0E4CF09F0D3
:101EC000E4CF08F0E4CF07F0E4CF06F0E4CF05F06C
:101ED000E4CF04F0E4CF03F0E4CF02F0E4CF01F06C
:101EE000E4CF00F0E4CFD9FF120000C0E5FF01C04D
:101EF000E5FF03C0E5FF04C0E5FF05C0E5FF06C040
:101F0000E5FF07C0E5FF08C0E5FF09C0E5FF0AC01F
:101F1000E5FF0BC0E5FFA3C400F0A4C401F0040179
:101F2000A33F01D0A42B0050E56ED4EC1DF0E65287
:101F3000076E046A056A066AA3C400F0A4C401F02F
:101F40000401A33F01D0A42B0050E56ED4EC1DF09A
:101F5000E6520B6A0A6E086A0850041205120A500B
:101F600006120B500712A3C400F0A4C401F0040130
:101F7000A33F01D0A42B0050E56ED4EC1DF0E65237
:101F8000036E006A03C001F0E86A03BEFF0E086E2C
:101F9000096E005004120150051208500612095033
:101FA0000712A3C400F0A4C401F00401A33F01D0B0
:101FB000A42B0050E56ED4EC1DF0E652016A041229
:101FC000015005120612071207C0E9FF06C0F4FF10
:101FD00005C0F3FF0450E4CF0BF0E4CF0AF0E4CFE8
:101FE00009F0E4CF08F0E4CF07F0E4CF06F0E4CF47
:101FF00005F0E4CF04F0E4CF03F0E4CF01F0E4CF48
:1020000000F01200D9CFE5FFE1CFD9FF00C0E5FF16
:1020100001C0E5FF02C0E5FF03C0E5FF04C0E5FF26
:1020200005C0E5FF06C0E5FF07C0E5FF08C0E5FF06
:1020300009C0E5FF0AC0E5FF0BC0E5FF0CC0E5FFE6
:102040000DC0E5FF020EDBCF00F0030EDBCF01F089
:10205000040EDBCF02F0050EDBCF03F0060EDBCF64
:1020600004F0070EDBCF05F0080EDBCF06F0090EFB
:10207000DBCF07F0086A096A0A6A0B6A200E0C6E49
:102080000350800BE8440D6E0050002601360236E6
:1020900003360850082609360A360B360D50D8A4E8
:1020A000088007500B5C08E106500A5C05E105500A
:1020B000095C02E10450085C09E30450085E055025
:1020C000095A06500A5A07500B5A00800C2ED8D7CE
:1020D00003C0E9FF02C0F4FF01C0F3FF0050E4CFEA
:1020E0000DF0E4CF0CF0E4CF0BF0E4CF0AF0E4CF36
:1020F00009F0E4CF08F0E4CF07F0E4CF06F0E4CF36
:1021000005F0E4CF04F0E4CF03F0E4CF02F0E4CF35
:1021100001F0E4CF00F0E4CFD9FF120000C0E5FFEA
:1021200001C0E5FF02C0E5FF03C0E5FF04C0E5FF15
:102130000401AE510401AD1901E15CD0AEC400F060
:10214000002A009E600E0024016E026A000E022228
:1021500001C0E9FF02C0EAFFEFCFB8F41F0E04018F
:10216000B817AEC4B7F4B8510401B727B72BB72BD3
:10217000B79F25EC1BF0016E015003E1016A012AB3
:1021800001D0016A25EC1BF00401B86F800EB81570
:10219000026E1F0EB815036E03C004F003C0B8F43E
:1021A000045003E1ADC4AEF438D001501BE002503E
:1021B0001FE025EC1BF0006E0401B8070050420A36
:1021C00017E000504E0A03E1EEEC17F011D000507A
:1021D000460A03E124EC1EF00BD00050490A08E146
:1021E000FF0006D0AEC4B9F40250D8B44BEC1EF0D8
:1021F000B7C4AEF4040176510401771906E0040176
:10220000AF5103E118EC11F008D08BB006D00401F7
:10221000AF5103E1ACB2E2EC1DF0E4CF04F0E4CF47
:1022200003F0E4CF02F0E4CF01F0E4CF00F01200BD
:1022300000C0E5FF01C0E5FF02C0E5FF03C0E5FF08
:10224000ACA276D008EC1CF0006E005005E1040151
:10225000776B0401766B6CD077C401F000500126D7
:1022600008EC1CF0026E00060250230A1FE1010E6A
:10227000005CD8A05BD008EC1CF0026E690A03E198
:10228000A0EC1AF053D00250720A03E1E2EC1DF008
:102290004DD00250730A01E049D08B80AB869D8AF5
:1022A0009D98AE50AE50AB98AB8840D00250430AD8
:1022B00005E00250420A01E039D001D0008E00C092
:1022C000B1F400500F01006F010E0401B26F040160
:1022D0007751011814E008EC1CF0026E0401B127DC
:1022E000000E0401B225006E036A0F0E032200C027
:1022F000E9FF03C0EAFF02C0EFFFB22BE8D7000EF0
:102300000401B225006E026A0F0E02220401B11D03
:10231000036E032A00C0E9FF02C0EAFF03C0EFFF1B
:102320000401B22BB2C4AFF40401A96B01C077F46D
:10233000E4CF03F0E4CF02F0E4CF01F0E4CF00F00B
:102340001200D9CFE5FFE1CFD9FF00C0E5FF01C002
:10235000E5FF02C0E5FF03C0E5FF04C0E5FF05C0DF
:10236000E5FF06C0E5FF07C0E5FF020EDBCF00F08A
:10237000030EDBCF01F0040EDBCF02F0050EDBCF46
:1023800003F002C006F00650046E800A33E100C07C
:10239000E9FF01C0F3FF02507FEC1CF0056EF3CFA4
:1023A00006F0F4CF07F003C0E5FF05C0E9FF06C063
:1023B000F3FF07502FEC1EF000C0E9FF01C0F3FF50
:1023C00002507FEC1CF0056EF3CF06F0F4CF07F05F
:1023D000052A02E3064A072A05C0E5FF06C0F4FF06
:1023E00007C0F6FF00C0E9FF01C0F3FF0250C5ECD3
:1023F0001DF01DD004AA1BD0047A045004E1035040
:102400006BEC1EF014D00450010A04E1035002ECFE
:1024100000F00DD004500F0A04E103506FEC1AF0E5
:1024200006D004500E0A03E1035081EC1EF0E4CF05
:1024300007F0E4CF06F0E4CF05F0E4CF04F0E4CFFA
:1024400003F0E4CF02F0E4CF01F0E4CF00F0E4CFFA
:10245000D9FF1200D9CFE5FFE1CFD9FF00C0E5FFDA
:1024600001C0E5FF02C0E5FF03C0E5FF04C0E5FFD2
:1024700005C0E5FF06C0E5FF07C0E5FF020EDBCFA4
:1024800000F0030EDBCF01F0040EDBCF02F0050EEF
:10249000DBCF03F077C478F4040176510401785F50
:1024A000780703C004F0056A030E0426D8B0052A95
:1024B00078C406F0076A0750800FF36E0550800F4E
:1024C000F35C02E10450065C02E2E8682BD0020EE5
:1024D000035C02E2E86A26D003060350E56EECECEA
:1024E00018F0E652046A0350045C14E2045000241D
:1024F000056EE86A0120066EE86A022005C0E9FF61
:1025000006C0F3FFA3EC1DF0042AE56EECEC18F016
:10251000E652E9D777C478F4040176510401785F74
:102520007807E86AE4CF07F0E4CF06F0E4CF05F0DF
:10253000E4CF04F0E4CF03F0E4CF02F0E4CF01F005
:10254000E4CF00F0E4CFD9FF1200D9CFE5FFE1CF0F
:10255000D9FF00C0E5FF01C0E5FF02C0E5FF03C0F1
:10256000E5FF04C0E5FF05C0E5FF06C0E5FF020E7C
:10257000DBCF00F0030EDBCF01F0040EDBCF02F067
:10258000050EDBCF03F0D88001AED890046A043684
:10259000045007E0011C066E001C056E054A062A61
:1025A00004D000C005F001C006F0D88003AED8907A
:1025B00007E3031C016E021C006E004A012A04D0CE
:1025C00002C000F003C001F00150E56E0050E56E5E
:1025D0000650E56E0550E56E7BEC15F0006EF3CF0E
:1025E00001F0040EE12604500AE0011C036E001CF9
:1025F000026E024A032A03C0F3FF025003D001C057
:10260000F3FF0050E4CF06F0E4CF05F0E4CF04F090
:10261000E4CF03F0E4CF02F0E4CF01F0E4CF00F028
:10262000E4CFD9FF1200D9CFE5FFE1CFD9FF00C039
:10263000E5FF01C0E5FF02C0E5FF03C0E5FF04C000
:10264000E5FF05C0E5FF020EDBCF00F0030EDBCF98
:1026500001F0040EDBCF02F0050EDBCF03F0A3C4C4
:1026600004F0A4C405F00401A33F01D0A42B03503F
:10267000E56E0450E56E76EC1BF0E652E652A3C41C
:1026800004F0A4C405F00401A33F01D0A42B025020
:10269000056EE56E0450E56E76EC1BF0E652E652F0
:1026A000A3C404F0A4C405F00401A33F01D0A42BEB
:1026B0000150056EE56E0450E56E76EC1BF0E652B7
:1026C000E652A3C404F0A4C405F00401A33F01D062
:1026D000A42B0050E56E0450E56E76EC1BF0E6523C
:1026E000E652E4CF05F0E4CF04F0E4CF03F0E4CF0A
:1026F00002F0E4CF01F0E4CF00F0E4CFD9FF120004
:1027000000C0E5FF01C0E5FF02C0E5FF03C0E5FF33
:1027100004C0E5FF05C0E5FF06C0E5FF0F014E6BF5
:102720000F014E894E837D827F827E92006A016A0C
:10273000026A036A046A5C0E0124056E040E02201C
:10274000066E05C0E9FF06C0EAFFEE6AEE6AEF6AB0
:10275000240E0324056E040E0420066E05C0E9FF56
:1027600006C0EAFFEE6AEF6A030E0126D8B0022A1D
:10277000020E0326D8B0042A002A080E005CDBE310
:1027800004017C6BFBEC1AF0F3CF01F0F4CF02F004
:10279000E9CF03F0500F04018E6F460E01208F6FBA
:1027A000000E0220906F000E0320916FE4CF06F020
:1027B000E4CF05F0E4CF04F0E4CF03F0E4CF02F07F
:1027C000E4CF01F0E4CF00F0120025642025640A74
:1027D0000000D9CFE5FFE1CFD9FF00C0E5FF01C080
:1027E000E5FF02C0E5FF03C0E5FF04C0E5FF05C04B
:1027F000E5FF06C0E5FF020EDBCF00F0030EDBCFE6
:1028000001F0040EDBCF02F004017F5119E175ECF9
:102810000FF0036EF3CF04F0F4CF05F0E9CF06F02C
:1028200003C0E5FF04C0F4FF05C0F6FF06C0F7FFD4
:1028300000C0E9FF01C0F3FF0250B4EC1DF01ED050
:1028400004017F51010A1AE100C0E9FF01C0F3FF52
:102850000250E8EC1BF0006EF3CF01F0F4CF02F071
:10286000E9CF03F00350E56E0250E56E0150E56ECE
:102870000050E56E13EC13F0040EE126E4CF06F0F1
:10288000E4CF05F0E4CF04F0E4CF03F0E4CF02F0AE
:10289000E4CF01F0E4CF00F0E4CFD9FF120000C094
:1028A000E5FF01C0E5FF02C0E5FF03C0E5FF04C08E
:1028B000E5FF25EC1BF0006EFE0A2DE1D8EC15F0CB
:1028C00025EC1BF0016E080E015CD8B043D001501E
:1028D000020DF450036EF3CF02F0240E0226040E14
:1028E000032202C0E9FF03C0EAFFEECF02F0EFCF00
:1028F00003F00350E56E0250E56EE56A0150E56EA7
:10290000000EE56E270EE56ECA0EE56E30EC18F08F
:10291000070EE1261FD0080E005C1CE225EC1BF020
:10292000046E036A25EC1BF0026A0326025004229F
:102930000050020DF450016EF3CF00F0240E00267B
:10294000040E012200C0E9FF01C0EAFF03C0EEFF50
:1029500004C0EFFFE4CF04F0E4CF03F0E4CF02F0D3
:10296000E4CF01F0E4CF00F01200D9CFE5FFE1CFD2
:10297000D9FF00C0E5FF01C0E5FF02C0E5FF03C0CD
:10298000E5FF04C0E5FF05C0E5FF06C0E5FF020E58
:10299000DBCF00F0030EDBCF01F0040EDBCF02F043
:1029A000050EDBCF03F0060EDBCF04F00050030D65
:1029B000F450066EF3CF05F05C0E0526040E0622D9
:1029C00005C0E9FF06C0EAFF01C0EEFF02C0EEFF4E
:1029D00003C0EFFF810E0024016E026A040E022282
:1029E00001C0E9FF02C0EAFF04C0EFFF0050020D82
:1029F000F450016EF3CF00F0240E0026040E0122E5
:102A000000C0E9FF01C0EAFF000EEE6AEF6AE4CF02
:102A100006F0E4CF05F0E4CF04F0E4CF03F0E4CF18
:102A200002F0E4CF01F0E4CF00F0E4CFD9FF1200D0
:102A3000D9CFE5FFE1CFD9FF00C0E5FF01C0E5FF39
:102A400002C0E5FF03C0E5FF04C0E5FF05C0E5FFE8
:102A500006C0E5FF020EDBCF00F0030EDBCF01F076
:102A6000040EDBCF02F0050EDBCF03F0060EDBCF4A
:102A700004F0070EDBCF05F0080EDBCF06F0D880A0
:102A800003AED89015E306500A0A12E104C0E9FF2C
:102A900005C0EAFF2D0EEF6E044A052A031E021E32
:102AA000011E006C05E1012A03E1022AD8B4032AC1
:102AB0000650E56E0550E56E0450E56E0350E56E78
:102AC0000250E56E0150E56E0050E56E18EC0CF01A
:102AD000070EE126E4CF06F0E4CF05F0E4CF04F0E2
:102AE000E4CF03F0E4CF02F0E4CF01F0E4CF00F054
:102AF000E4CFD9FF1200D9CFE5FFE1CFD9FF00C065
:102B0000E5FF01C0E5FF02C0E5FF03C0E5FF04C02B
:102B1000E5FF05C0E5FF06C0E5FF020EDBCF00F0D4
:102B2000030EDBCF01F0040EDBCF02F0050EDBCF8E
:102B300003F0046A056A0350800BE844066E0650F1
:102B400011E10250022603360350015C02E10250FB
:102B5000005C04E2D8900332023204D0052A05C09A
:102B600004F0E9D70350015C02E10250005C04E389
:102B70000250005E0350015AD8900332023204C062
:102B800005F004060550EEE101C0F3FF0050E4CF6C
:102B900006F0E4CF05F0E4CF04F0E4CF03F0E4CF97
:102BA00002F0E4CF01F0E4CF00F0E4CFD9FF12004F
:102BB00000C0E5FF01C0E5FF02C0E5FF03C0E5FF7F
:102BC000AEC400F0016AB9C402F0036A0250005EAC
:102BD0000350015AE56A800EE56E0150E56E005023
:102BE000E56EA5EC12F0006E040EE1260006B9C4F5
:102BF00001F0430E6FEC1AF0200E6FEC1AF000504B
:102C0000800F7F0F20E3600E0124026E036A000E26
:102C1000032202C0E9FF03C0EAFFEFCF02F0E56A3A
:102C20000250E56E000EE56E3B0EE56EDC0EE56EC5
:102C300030EC18F0050EE126012A0150800A01E16E
:102C4000016A0006DCD7E4CF03F0E4CF02F0E4CF62
:102C500001F0E4CF00F01200D9CFE5FFE1CFD9FFBA
:102C600000C0E5FF01C0E5FF02C0E5FF03C0E5FFCE
:102C700004C0E5FF020EDBCF00F00038E8441F0B74
:102C8000016E026AA70E0126040E022201C0E9FFAE
:102C900002C0EAFFEFCF01F0070E0016010E026E30
:102CA000000E036E005006E0E86CD8900236033642
:102CB000010FFCE3046A015002160450031602508F
:102CC00005E1035003E1026A022A01D0026A0250C0
:102CD000D880E866D890026A02360250E4CF04F049
:102CE000E4CF03F0E4CF02F0E4CF01F0E4CF00F052
:102CF000E4CFD9FF1200D9CFE5FFE1CFD9FF00C063
:102D0000E5FF01C0E5FF02C0E5FF03C0E5FF04C029
:102D1000E5FF020EDBCF00F0030EDBCF01F0040E67
:102D2000DBCF02F004017F5111E1D7EC19F0036E03
:102D3000F3CF04F003C0E5FF04C0F4FF00C0E9FFD7
:102D400001C0F3FF02500CEC1EF016D004017F51BD
:102D5000010A12E100C0E9FF01C0F3FF02503EEC9E
:102D60001DF0006EF3CF01F00150E56E0050E56EEE
:102D7000AFEC18F0E652E652E4CF04F0E4CF03F0F3
:102D8000E4CF02F0E4CF01F0E4CF00F0E4CFD9FFCC
:102D90001200B20EF66E3C0EF76E000EF86E0900D1
:102DA000F550056E0900F550066E04E1056702D086
:102DB00016EF17F00900F550006E0900F550016E8E
:102DC0000900F550026E09000900F550E96E09008E
:102DD000F550EA6E090009000900F550036E09007C
:102DE000F550046E09000900F6CF07F0F7CF08F0A0
:102DF000F8CF09F000C0F6FF01C0F7FF02C0F8FFEE
:102E0000035002E1045007E00900F550EE6E03069E
:102E1000F8E20406F9D707C0F6FF08C0F7FF09C0BB
:102E2000F8FF050601E20606D5EF16F0120000C015
:102E3000E5FF01C0E5FF02C0E5FF03C0E5FF8EEC42
:102E400010F0F4EC0CF0A1EC0DF0FBEC1AF0006EBD
:102E5000F3CF01F0F4CF02F0E9CF03F004013451D5
:102E6000005E3551015A3651025A3751035A039EBA
:102E70003F0E035C08E1FF0E025C05E1FF0E015C02
:102E800002E1FF0E005C16E2FBEC1AF0F3CF01F05A
:102E9000F4CF02F0E9CF03F0880F0401346F130E72
:102EA0000120356F000E0220366F000E0320376FB1
:102EB0002BEC0BF0E4CF03F0E4CF02F0E4CF01F011
:102EC000E4CF00F0120000C0E5FF01C0E5FF02C042
:102ED000E5FF03C0E5FF04C0E5FF006AA50E00247E
:102EE000016E026A040E0222A70E0024036E046A19
:102EF000040E042203C0E9FF04C0EAFF010EEF6ED6
:102F000001C0E9FF02C0EAFFEF6E002A020E005C7A
:102F1000E5E3006A230E0024016E026A0F0E02220E
:102F200001C0E9FF02C0EAFFEF68002A100E005C52
:102F3000F1E3E4CF04F0E4CF03F0E4CF02F0E4CF18
:102F400001F0E4CF00F01200432073202564202517
:102F5000640A0000D9CFE5FFE1CFD9FF00C0E5FF4B
:102F600001C0E5FF02C0E5FF03C0E5FF04C0E5FFC7
:102F700005C0E5FF020EDBCF00F0030EDBCF01F052
:102F8000040EDBCF02F0050EDBCF03F0060EDBCF25
:102F900004F0056A230E00260F0E0522800E015E46
:102FA000070E01160138F00B026E070E04160450CE
:102FB000022600C0E9FF05C0EAFF02C0EFFFE4CF30
:102FC00005F0E4CF04F0E4CF03F0E4CF02F0E4CF67
:102FD00001F0E4CF00F0E4CFD9FF120000C0E5FF1C
:102FE00001C0E5FF02C0E5FF25EC1BF0006E25ECFB
:102FF0001BF0016E0050026ED00E0224006E0A0E0D
:10300000005C05E30050026EF90E0224006E0150D0
:10301000026ED00E0224016E0A0E015C05E301501F
:10302000026EF90E0224016E080E005C12E2100E10
:10303000015CD8B00ED00038F00B0124006E9DEC7E
:1030400019F0016E015005E10050E56EB4EC1CF082
:10305000E652E4CF02F0E4CF01F0E4CF00F012003A
:10306000D9CFE5FFE1CFD9FF00C0E5FF01C0E5FF03
:1030700002C0E5FF020ED924006E000EDA20016EB8
:10308000800E026E030E0026000E01220222025064
:10309000E56E0150E56E0050E56E040EDBCFE5FFF6
:1030A000030EDBCFE5FF020EDBCFE5FF04019C51F1
:1030B000E56E9B51E56E9A51E56E0EEC00F0006EE8
:1030C000F3CF01F0090EE12601C0F3FF0050E4CF79
:1030D00002F0E4CF01F0E4CF00F0E4CFD9FF12001A
:1030E000D9CFE5FFE1CFD9FF00C0E5FF01C0E5FF83
:1030F00002C0E5FF03C0E5FF020EDBCF00F0030EC8
:10310000DBCF01F0040EDBCF02F004017F510DE1B3
:1031100012EC1DF0036E03C0E5FF00C0E9FF01C023
:10312000F3FF02502FEC1EF00FD004017F51010A73
:103130000BE100C0E9FF01C0F3FF0250A3EC1DF05A
:10314000E56E9DEC1BF0E652E4CF03F0E4CF02F015
:10315000E4CF01F0E4CF00F0E4CFD9FF1200D9CFE3
:10316000E5FFE1CFD9FF00C0E5FF01C0E5FF02C0E8
:10317000E5FF03C0E5FF020EDBCF00F0030EDBCF5F
:1031800001F0A3C402F0A4C403F00401A33F01D0E2
:10319000A42B0150E56E0250E56E76EC1BF0E65272
:1031A000E652A3C402F0A4C403F00401A33F01D07B
:1031B000A42B0050E56E0250E56E76EC1BF0E65253
:1031C000E652E4CF03F0E4CF02F0E4CF01F0E4CF25
:1031D00000F0E4CFD9FF1200D9CFE5FFE1CFD9FF4E
:1031E00000C0E5FF01C0E5FF02C0E5FF03C0E5FF49
:1031F00004C0E5FF020EDBCF00F076C401F0026AE6
:10320000014A022A77C403F0046A0150031803E15B
:103210000250041801E001D00ED0000E0401762502
:10322000016E026A070E022201C0E9FF02C0EAFF36
:1032300000C0EFFF762BE4CF04F0E4CF03F0E4CF3F
:1032400002F0E4CF01F0E4CF00F0E4CFD9FF1200A8
:10325000D9CFE5FFE1CFD9FF00C0E5FF01C0E5FF11
:1032600002C0E5FF03C0E5FF020EDBCF00F0016AFC
:10327000B9C402F0036A0250002603500122E56A35
:10328000800EE56E0150E56E0050E56EA5EC12F083
:10329000006EF3CF01F0040EE126600E0026000E52
:1032A000012200C0E9FF01C0EAFFEFCF00F00050AB
:1032B000E4CF03F0E4CF02F0E4CF01F0E4CF00F07C
:1032C000E4CFD9FF1200F3CFE5FFF4CFE5FFE9CF5C
:1032D000E5FFEACFE5FFFACFE5FFFBCFE5FF04010D
:1032E00074510F01356F040175510F01366FD650BF
:1032F000336FD750346FF2A411D00401743F01D062
:10330000752BF294040174510F01356F040175514E
:103310000F01366FD650336FD750346F72EC1EF0FA
:10332000E4CFFBFFE4CFFAFFE4CFEAFFE4CFE9FF0D
:10333000E4CFF4FFE4CFF3FF110000C0E5FF01C0CC
:10334000E5FF02C0E5FF010E006E25EC1BF0016EEB
:1033500001C002F0015023E00050E56ED4EC1DF0F6
:10336000016EE652015010E10A0E005C0BE20A0EFB
:10337000006EE56ED4EC1DF0016EE652015004E1E2
:10338000E8680ED0E8680CD00150021802E0E86846
:1033900007D0002A1B0E005CD8E3E86801D0E86A79
:1033A000E4CF02F0E4CF01F0E4CF00F0120000C05F
:1033B000E5FF01C0E5FF02C0E5FF03C0E5FFA3C4D0
:1033C00000F0A4C401F00401A33F01D0A42B0050DD
:1033D000E56ED4EC1DF0E652036E026AA3C400F061
:1033E000A4C401F00401A33F01D0A42B0050E56E5A
:1033F000D4EC1DF0E652016A02120150031203C020
:10340000F3FF0250E4CF03F0E4CF02F0E4CF01F089
:10341000E4CF00F01200D9CFE5FFE1CFD9FF00C023
:10342000E5FF01C0E5FF02C0E5FF03C0E5FF020EB6
:10343000DBCF00F0030EDBCF01F0040EDBCF02F098
:103440000050020DF450036EF3CF00F0240E00265E
:10345000040E032200C0E9FF03C0EAFF01C0EEFF33
:1034600002C0EFFFE4CF03F0E4CF02F0E4CF01F0BD
:10347000E4CF00F0E4CFD9FF1200D9CFE5FFE1CFD0
:10348000D9FF00C0E5FF01C0E5FF02C0E5FF03C0B2
:10349000E5FF04C0E5FF020EDBCF00F0030EDBCF3B
:1034A00001F0040EDBCF02F0050EDBCF03F0060EB9
:1034B000DBCFE9FF070EDBCFEAFF080EDBCF04F01E
:1034C00040EC04F0E4CF04F0E4CF03F0E4CF02F0EA
:1034D000E4CF01F0E4CF00F0E4CFD9FF120000C048
:1034E000E5FF01C0E5FF02C0E5FF006E390E0401F3
:1034F0007B25016E026A040E022201C0E9FF02C0B0
:10350000EAFF00C0EFFF220E7B5D01E27B2B005043
:103510000A0A0FE104017B51E56E800EE56E040E90
:10352000E56E390EE56E2AEC12F0040EE126040178
:103530007B6BE4CF02F0E4CF01F0E4CF00F01200A7
:103540000401766B0401776B040178698B80949099
:10355000B06A3F0EAF6EB886AC8AAC84AC8CAC90CF
:10356000AB8CAB8E0401B06B0401AA6B0401AD6B94
:103570000401AE6B0401AF6B000EE56AD4EC1DF0E4
:1035800004017A6FE6529F989F9A010E0401796FA9
:1035900004019A6B9B6B2F0E9C6FE2EC1DF01200E6
:1035A000D9CFE5FFE1CFD9FF00C0E5FF01C0E5FFBE
:1035B00002C0E5FF03C0E5FF020EDBCF00F0030E03
:1035C000DBCF01F0040EDBCF02F0050EDBCF03F002
:1035D000060EDBCFE9FF070EDBCFEAFFC1EC07F0F9
:1035E000E4CF03F0E4CF02F0E4CF01F0E4CF00F049
:1035F000E4CFD9FF12000401745104018C6F04015F
:10360000755104018D6FD6508A6FD7508B6F8C51D6
:103610000401741905E104018D51040175190CE0D0
:103620000401745104018C6F0401755104018D6F04
:10363000D6508A6FD7508B6F8DC4E9FF8CC4F4FFCE
:103640008BC4F3FF04018A51120000C0E5FF01C0E2
:10365000E5FF0401AE510401B71905E00401AE51C4
:103660000401AD1902E1E86A15D0AEC400F004010E
:10367000AE2B016A600E0026000E012200C0E9FF99
:1036800001C0EAFFEFCF00F0AE51800A02E1040171
:10369000AE6B0050E4CF01F0E4CF00F0120000C0A8
:1036A000E5FF6FEC1EF00401896B806B8983006A73
:1036B00089B3002A0050010BE844F46E8051FD0BE1
:1036C000F410806FD58ED59CD59AD588D596D59493
:1036D000D582D580F28AF184D08EF28EF28CBA80B7
:1036E000FF0EBB68BA84E4CF00F01200D9CFE5FF2B
:1036F000E1CFD9FF00C0E5FF020EDBCF00F0030EE3
:10370000DBCFA8FF00C0A9FFA69EA69CA684F29EC0
:10371000F29C550EA76EAA0EA76EA682A6A202D094
:103720000000FCD7E86AA6B6E82AA694F28EF28CCE
:10373000E4CF00F0E4CFD9FF1200D9CFE5FFE1CF0D
:10374000D9FF00C0E5FF01C0E5FF02C0E5FF020EA2
:10375000DBCF00F0A3C401F0A4C402F00401A33F36
:1037600001D0A42B0050E56E0150E56E76EC1BF005
:10377000E652E652E4CF02F0E4CF01F0E4CF00F0ED
:10378000E4CFD9FF1200D8CFE5FFE0CFE5FFE56E2B
:10379000F3CFE5FFF4CFE5FFE9CFE5FFEACFE5FFA3
:1037A000FACFE5FFFBCFE5FF29EC0AF0E4CFFBFF02
:1037B000E4CFFAFFE4CFEAFFE4CFE9FFE4CFF4FF80
:1037C000E4CFF3FFE450E4CFE0FFE4CFD8FF1000F4
:1037D000E8AE0AD0F3CFEAFFEE50EECFF3FFEECF24
:1037E000F4FFEECFE9FF1200E8BC8EEF1EF0E9CF48
:1037F000F6FFF3CFF7FFF86E0900F5500900F5CF9B
:10380000F3FF0900F5CFF4FF0900F5CFE9FF12003F
:1038100000C0E5FF01C0E5FF0401765104017719FE
:1038200002E1E86A0FD0000E04017725006E016AFC
:10383000070E012200C0E9FF01C0EAFFEFCF00F050
:10384000772B0050E4CF01F0E4CF00F01200F2CF6C
:10385000EAFFF29EA69EA69CA684E9CFA9FFF3CF1D
:10386000AAFFE4CFA8FF3AEC1EF0F4CFA8FF3AEC91
:103870001EF0F6CFA8FF3AEC1EF0F7CFA8FF3AEC07
:103880001EF0A694EABEF28E1200D9CFE5FFE1CF7A
:10389000D9FF00C0E5FF01C0E5FF020EDBCF00F05D
:1038A000016A230E00260F0E012200C0E9FF01C0AD
:1038B000EAFFFF0EEF68E4CF01F0E4CF00F0E4CFC1
:1038C000D9FF1200F2CFF6FFF29EA69EA69CE9CF8A
:1038D000A9FFF3CFAAFFA680A850A94AAA2AA680CA
:1038E000A8CFF3FFA94AAA2AA680A8CFF4FFA94A25
:1038F000AA2AA680A8CFEAFFF6BEF28E1200E8AE92
:1039000008D0F3CFEAFFEE50EECFF3FFEECFF4FF97
:103910001200E8BC90EF1EF0E9CFF6FFF3CFF7FFFF
:10392000F86E0900F5500900F5CFF3FF0900F5CF57
:10393000F4FF1200F2CFEAFFF29EA69EA69CA68498
:10394000E9CFA9FFF3CFAAFFE4CFA8FF3AEC1EF01E
:10395000F4CFA8FF3AEC1EF0F6CFA8FF3AEC1EF029
:10396000A694EABEF28E1200D9CFE5FFE1CFD9FFCF
:1039700000C0E5FF020EDBCF00F000C07AF400507B
:10398000E56E000EE56A76EC1BF0E652E652E4CFF7
:1039900000F0E4CFD9FF1200F2CFF6FFF29EA69E10
:1039A000A69CE9CFA9FFF3CFAAFFA680A850A94AF9
:1039B000AA2AA680A8CFF3FFA94AAA2AA680A8CF40
:1039C000F4FFF6BEF28E120000C0E5FF01C0E5FF75
:1039D000600E0401AE25006E016A000E012200C0D7
:1039E000E9FF01C0EAFFEFCF00F00050E4CF01F0A3
:1039F000E4CF00F01200D9CFE5FFE1CFD9FF00C03E
:103A0000E5FF020EDBCF00F0610E005C05E37B0EEC
:103A1000005C02E2010E01D0E86AE4CF00F0E4CFDE
:103A2000D9FF120000C0E5FF01C0E5FFA3C400F00C
:103A3000A4C401F00401A33F01D0A42B0050E56E03
:103A4000D4EC1DF0E652E4CF01F0E4CF00F0120018
:103A5000D9CFE5FFE1CFD9FF00C0E5FF020EDBCFF4
:103A600000F000C079F4005004E1E2EC1DF09D9AF2
:103A70009D98E4CF00F0E4CFD9FF1200E8AE06D065
:103A8000F3CFEAFFEE50EECFF3FF1200E8BC8CEF6D
:103A90001EF0E9CFF6FFF3CFF7FFF86E0900F550FF
:103AA0000900F5CFF3FF1200F2CFEAFFF29EA69EC7
:103AB000A69CA684E9CFA9FFF3CFAAFFE4CFA8FF75
:103AC0003AEC1EF0F4CFA8FF3AEC1EF0A694EABE42
:103AD000F28E120018EEFFF028EEFFF0F86AA68EC4
:103AE000A69CE9680E0EEA6E0068000EED6A0050B2
:103AF000FDE1C9EC16F060EC1EF0FFD7F2CFF6FF47
:103B0000F29EA69EA69CE9CFA9FFF3CFAAFFA680AE
:103B1000A850A94AAA2AA680A8CFF3FFF6BEF28E23
:103B20001200F2CFEAFFF29EA69EA69CA684E9CFE1
:103B3000A9FFF3CFAAFFE4CFA8FF3AEC1EF0A694AA
:103B4000EABEF28E1200E8AE04D0F3CFEAFFEE50E8
:103B50001200E8BC8AEF1EF0E9CFF6FFF3CFF7FFC3
:103B6000F86E0900F5501200E8AE0BD0F3CFEAFF73
:103B7000E4CFEEFFF4CFEEFFF6CFEEFFF7CFEEFF90
:103B80001200E8BC88EF1EF01200E8AE09D0F3CFB7
:103B9000EAFFE4CFEEFFF4CFEEFFF6CFEEFF120028
:103BA000E8BC92EF1EF01200D9CFE5FFE1CFD9FFBC
:103BB000020EDBCFA9FFA69CA69EA680A850E4CF4C
:103BC000D9FF1200ACA2FED78B80AE500000AE50E1
:103BD000AB98AB88AB869D8A9D9812002564200027
:103BE0007EA20BD004019751E96E9851EA6E040150
:103BF000BA1DEF160F014E917E921200F2CFF6FF22
:103C0000F29EA69EA69CE9CFA9FFF3CFAAFFA680AD
:103C1000A850F6BEF28E1200E8AE07D0F3CFEAFF4E
:103C2000E4CFEEFFF4CFEEFF1200E8BC86EF1EF00B
:103C30001200700ED36E9B8CFF0E9268936894688E
:103C40009668626AF19E120000C0E5FF9DEC19F0D3
:103C5000006E005001E1FF00E4CF00F01200E8AE7A
:103C600005D0F3CFEAFFE4CFEEFF1200E8BC84EF0B
:103C70001EF01200550EA76EAA0EA76EA682A6B25F
:103C8000FED7A94AAA2A010E04017F6F1C0E040167
:103C9000A36FA46B120025EC1BF0140A02E14FEC99
:103CA00014F0120004017F6B1C0E0401A36FA46BBF
:103CB000120001000C000000740400000B00000062
:103CC00048EC0EF017EC17F0FDD712004FEC1BF08C
:103CD000A0EC1AF01200ACA2FED7AD6E120019ECE7
:103CE0001EF01200F0EC1DF012000401AE511200A3
:103CF0000401B851120004017951120004017C6BD7
:103D00001200E8CF7FFF120091EF1DF054EF1DF07D
:103D100027EF1CF0FEEF1DF07EEF1DF062EF1CF0B0
:083D2000CCEF1CF09AEF1CF03F
:00000001FF
