:020000040000FA
:1000000026EF39F0C96E120090EF34F057EC10F083
:10001000DFEC14F0FDD712007FEF37F0D9CFE5FF0A
:10002000E1CFD9FF00C0E5FF01C0E5FF02C0E5FF59
:1000300003C0E5FF04C0E5FF05C0E5FF06C0E5FF1E
:1000400007C0E5FF08C0E5FF09C0E5FF0AC0E5FFFE
:100050000BC0E5FF0CC0E5FF0DC0E5FF0EC0E5FFDE
:100060000FC0E5FF10C0E5FF11C0E5FF12C0E5FFBE
:1000700013C0E5FF14C0E5FF15C0E5FF16C0E5FF9E
:1000800017C0E5FF18C0E5FF19C0E5FF1AC0E5FF7E
:100090001BC0E5FF1CC0E5FF1DC0E5FF1EC0E5FF5E
:1000A0001FC0E5FF20C0E5FF21C0E5FF22C0E5FF3E
:1000B00023C0E5FF24C0E5FF25C0E5FF020EDBCF2E
:1000C00000F0030EDBCF01F0040EDBCF02F0025094
:1000D000086E0150076E0050066EE56A100EE56E60
:1000E0000850E56E0750E56E0650E56E800EE56E31
:1000F0000F0EE56E230EE56E85EC2CF0080EE12662
:100100002BCF03F02CCF04F02DCF05F02ECF06F02F
:1001100003C007F004C008F005C009F006C00AF0EB
:10012000D8800AAED8900AE30A1E091E081E076C82
:1001300005E1082A03E1092AD8B40A2A23CF0BF0E3
:1001400024CF0CF0E86A0F0124BFFF0E0D6E0E6E77
:10015000D8902731106E26310F6ED89010320F32A2
:100160002851E840E840C00B10122841E8403F0BFE
:10017000E8BAC009116E126A11BE12680F500B5C0A
:100180000F6E10500C58106E11500D58116E125009
:100190000E58126E800F810F08E1FF0E115C05E111
:1001A000FF0E105C02E1FE0E0F5CD8A04ED0125084
:1001B000800F800F08E1000E115C05E1000E105C5D
:1001C00002E1030E0F5CD8B040D00A340A30166E3C
:1001D0000930156E0830146E0730136E31CF17F0EA
:1001E00032CF18F0E86A0F0132BFFF0E196E800F90
:1001F000F36E1650800FF35C08E11550195C05E1B1
:100200001450185C02E11350175C1FE30C50156E7C
:1002100015260D34166ED890153616360B44E84464
:10022000FC0B146E0B50E844E844030B15120F014D
:10023000256B1450266F1550276F1650286F2B6BA7
:100240002C6B2D6B2E6BB0EF04F00850076E09502D
:10025000086ED89008320732D890083207320A5018
:10026000E840E840C00B08120A40E8403F0BE8BAFB
:10027000C0090A6A083408300A6E0730096EE86A55
:100280000ABEFF0E0B6E0C6E07C00DF008C00EF01C
:10029000E86A08BEFF0E136EE56E1350E56E0E5051
:1002A000E56E0D50E56E0C50E56E0B50E56E0A5094
:1002B000E56E0950E56E7CEC21F0096EF3CF0AF093
:1002C000F4CF0BF0E9CF0CF0080EE12631CF0DF0A2
:1002D00032CF0EF0E86A0F0132BFFF0E136E146EBC
:1002E000E56E1350E56E0E50E56E0D50E56E0C5048
:1002F000E56E0B50E56E0A50E56E0950E56E51EC67
:1003000025F0096EF3CF0AF0080EE12629CF0BF095
:100310002ACF0CF0E86A0F012ABFFF0E156E0C50B1
:10032000196E192615341A6ED89019361A360B44E0
:10033000E844FC0B186E0B50E844E844030B191218
:10034000176AD88006AED890D8B064D109C00BF037
:100350000AC00CF0E86A0ABEFF0E156E800FF36E3D
:100360001250800FF35C08E11150155C05E110504C
:100370000C5C02E10F500B5CD8B024D10650800F0A
:10038000F36E1A50800FF35C08E11950055C05E12B
:100390001850045C02E11750035CD8B0ECD02FCFAA
:1003A0000BF030CF0CF0E86A0F0130BFFF0E156E76
:1003B000166E03500B2604500C22055015220650D1
:1003C00016220B500F012B6F0C502C6F15502D6FF8
:1003D00016502E6F31CF0BF032CF0CF02FCF15F01F
:1003E00030CF16F00C50800FF36E1650800FF35C78
:1003F00002E115500B5CD8B0A2D02BCF1BF02CCF54
:100400001CF02DCF1DF02ECF1EF0D8901D30206E89
:100410001C301F6ED89020321F321E50E840E8403A
:10042000C00B20121E40E8403F0BE8BAC009226A08
:100430001F50076E2050086E08340830206E0730B9
:100440001F6EE86A20BEFF0E216E226E07C023F0E9
:1004500008C024F0E86A08BEFF0E256EE56E255040
:10046000E56E2450E56E2350E56E2250E56E215076
:10047000E56E2050E56E1F50E56E7CEC21F01F6E9E
:10048000F3CF20F0F4CF21F0E9CF22F0080EE126DF
:100490000BC023F00CC024F0E86A0CBEFF0E256EE2
:1004A000E56E2550E56E2450E56E2350E56E225032
:1004B000E56E2150E56E2050E56E1F50E56E51EC63
:1004C00025F01F6EF3CF20F0080EE1261F50096EB5
:1004D00020500A6E09C01FF00AC020F0E86A0ABE68
:1004E000FF0E216E226E1250800FF36E2250800F8D
:1004F000F35C08E12150115C05E12050105C02E141
:100500001F500F5C1CE20B50155C0B6E0C50165804
:100510000C6EE86A0CBEFF0E156E166E0B501B5E5D
:100520000C501C5A15501D5A16501E5A1B500F01C4
:100530002B6F1C502C6F1D502D6F1E502E6F1A509C
:10054000800FF36E0F012E51800FF35C08E12D51E7
:10055000195C05E12C51185C02E12B51175CD8B0F5
:10056000D8D117500F012B6F18502C6F19502D6FC9
:100570001A502E6FCED11A50800FF36E0650800F96
:10058000F35C08E10550195C05E10450185C02E1D8
:100590000350175CD8B0BDD10D50035C0B6E0E50EC
:1005A00004580C6E13500558156E14500658166EEC
:1005B0000B500F012B6F0C502C6F15502D6F1650D8
:1005C0002E6FA7D12FCF0BF030CF0CF0E86A0F01C0
:1005D00030BFFF0E156E166E0D500B260E500C22FE
:1005E00013501522145016220B50035C0B6E0C5046
:1005F00004580C6E15500558156E16500658166E98
:100600000B500F012B6F0C502C6F15502D6F165087
:100610002E6F7FD10A1E096CD8B40A2A09C00BF0CC
:100620000AC00CF0E86A0ABEFF0E156E166E125074
:10063000800FF36E1650800FF35C08E11550115CCB
:1006400005E10C50105C02E10B500F5CD8B03ED1BC
:100650001A1C166E191C156E181C0C6E171C0B6ECE
:100660000B2A04E10C2A02E1154A162A1650800FC3
:10067000F36E0650800FF35C08E10550155C05E150
:1006800004500C5C02E103500B5CD8B0F8D02FCFC3
:1006900017F030CF18F0E86A0F0130BFFF0E196E67
:1006A0001A6E1750035C176E18500458186E1950C4
:1006B0000558196E1A5006581A6E17500F012B6FF5
:1006C00018502C6F19502D6F1A502E6F31CF17F014
:1006D00032CF18F02FCF19F030CF1AF01850800F0A
:1006E000F36E1A50800FF35C02E11950175CD8B01A
:1006F000AAD02BCF1BF02CCF1CF02DCF1DF02ECF6E
:100700001EF0D8901D30206E1C301F6ED890203205
:100710001F321E50E840E840C00B20121E40E84047
:100720003F0BE8BAC009216E226A21BE2268221E50
:10073000211E201E1F6C05E1202A03E1212AD8B4C6
:10074000222A1F50076E2050086E08340830206E91
:1007500007301F6EE86A20BEFF0E216E226EE86A27
:1007600008BEFF0E236EE56E2350E56E0850E56E61
:100770000750E56E2250E56E2150E56E2050E56E83
:100780001F50E56E7CEC21F0076EF3CF08F0F4CF3C
:100790001FF0E9CF20F0080EE12617C021F018C0A5
:1007A00022F0E86A18BEFF0E236EE56E2350E56E58
:1007B0002250E56E2150E56E2050E56E1F50E56E2B
:1007C0000850E56E0750E56E51EC25F0076EF3CF4B
:1007D00008F0080EE126081E076C02E1082A00E175
:1007E0000750096E08500A6EE86A0ABEFF0E076ECF
:1007F000800FF36E1250800FF35C08E11150075C1C
:1008000005E110500A5C02E10F50095C1CE2175030
:10081000195C176E18501A58186EE86A18BEFF0E49
:10082000076E086E17501B2618501C2207501D22F9
:1008300008501E221B500F012B6F1C502C6F1D5097
:100840002D6F1E502E6F0F012E51800FF36E16501C
:10085000800FF35C08E115502D5D05E10C502C5D17
:1008600002E10B502B5DD8B054D00B500F012B6F11
:100870000C502C6F15502D6F16502E6F4AD006500D
:10088000800FF36E1650800FF35C08E11550055C85
:1008900005E10C50045C02E10B50035CD8B039D088
:1008A0000D500324076E0E500420086E13500520CF
:1008B000096E145006200A6E07500F012B6F085066
:1008C0002C6F09502D6F0A502E6F23D02FCF07F0B9
:1008D00030CF08F0E86A0F0130BFFF0E096E0A6ED4
:1008E00007500D2608500E22095013220A501422D8
:1008F0000D5003260E5004221350052214500622D8
:1009000003500F012B6F04502C6F05502D6F0650B4
:100910002E6FD8900F012D31046E2C31036ED890BC
:10092000043203322E51E840E840C00B04122E413D
:10093000E8403F0BE8BAC009056E066A05BE0668C6
:10094000255103262651042227510522285106222B
:100950000350256F0450266F0550276F0650286FEF
:10096000E56A100EE56E800EE56E0F0EE56E230E45
:10097000E56E0250E56E0150E56E0050E56E85ECC7
:100980002CF0080EE126E4CF25F0E4CF24F0E4CFEC
:1009900023F0E4CF22F0E4CF21F0E4CF20F0E4CF45
:1009A0001FF0E4CF1EF0E4CF1DF0E4CF1CF0E4CF45
:1009B0001BF0E4CF1AF0E4CF19F0E4CF18F0E4CF45
:1009C00017F0E4CF16F0E4CF15F0E4CF14F0E4CF45
:1009D00013F0E4CF12F0E4CF11F0E4CF10F0E4CF45
:1009E0000FF0E4CF0EF0E4CF0DF0E4CF0CF0E4CF45
:1009F0000BF0E4CF0AF0E4CF09F0E4CF08F0E4CF45
:100A000007F0E4CF06F0E4CF05F0E4CF04F0E4CF44
:100A100003F0E4CF02F0E4CF01F0E4CF00F0E4CF44
:100A2000D9FF1200D9CFE5FFE1CFD9FF00C0E5FF24
:100A300001C0E5FF02C0E5FF03C0E5FF04C0E5FF1C
:100A400005C0E5FF06C0E5FF07C0E5FF08C0E5FFFC
:100A500009C0E5FF0AC0E5FF0BC0E5FF0CC0E5FFDC
:100A60000DC0E5FF0EC0E5FF0FC0E5FF10C0E5FFBC
:100A700011C0E5FF12C0E5FF13C0E5FF14C0E5FF9C
:100A800015C0E5FF16C0E5FF17C0E5FF18C0E5FF7C
:100A900019C0E5FF1AC0E5FF1BC0E5FF1CC0E5FF5C
:100AA0001DC0E5FF1EC0E5FF020EDBCF00F0030E08
:100AB000DBCF01F0040EDBCF02F0050EDBCF03F03D
:100AC000060EDBCF04F0070EDBCF05F0080EDBCF00
:100AD00006F0090EDBCF07F00A0EDBCF08F0096A3B
:100AE0000A6A02C00DF00D50800A0DE102500A01A1
:100AF000DD6F0150DC6F0050DB6F0A0E016EDB0E04
:100B0000006E800E026E03C0E9FF04C0F3FF0550C3
:100B10005FEC39F00B6E0B50D8B400EF09F00B50BE
:100B2000250A02E0E7EF08F00C6A0D6A0E6A0F6A08
:100B3000106A0A0E116E126A136A146A200E156E7C
:100B40001668176A2B0E186E032A02E3044A052A58
:100B500003C0E9FF04C0F3FF05505FEC39F0196EE4
:100B6000250A13E11950E56E0250E56E0150E56E5D
:100B70000050E56EFCEC2BF0040EE126094A0A2A2F
:100B8000032A02E3044A052ABED71950300A06E1B7
:100B9000300E156E032A02E3044A052A03C0E9FF5A
:100BA00004C0F3FF05505FEC39F02D0A06E1010E99
:100BB000146E032A02E3044A052A03C0E9FF04C0B5
:100BC000F3FF05505FEC39F0200A08E1010E176EC3
:100BD000200E186E032A02E3044A052A03C0E9FF27
:100BE00004C0F3FF05505FEC39F02B0A06E1010E5B
:100BF000176E032A02E3044A052A03C0E9FF04C072
:100C0000F3FF05505FEC39F0196E800F4F0F2DE3A5
:100C10001950800F460F29E203C019F004C01AF0E2
:100C200005C01BF019C0E9FF1AC0F3FF1B505FECB1
:100C300039F01C6E800F500F12E31C50800F460FCE
:100C40000EE213500A0DF3CF1DF01D501C26D00EDE
:100C50001C24136E192A02E31A4A1B2AE3D719C06F
:100C600003F01AC004F01BC005F003C0E9FF04C084
:100C7000F3FF05505FEC39F02E0A2EE1032A02E360
:100C8000044A052A166A03C019F004C01AF005C008
:100C90001BF019C0E9FF1AC0F3FF1B505FEC39F0DD
:100CA0001C6E800F500F12E31C50800F460F0EE297
:100CB00016500A0DF3CF1DF01D501C26D00E1C241B
:100CC000166E192A02E31A4A1B2AE3D719C003F049
:100CD0001AC004F01BC005F003C0E9FF04C0F3FF15
:100CE00005505FEC39F0196E6C0A07E1010E0C6ECD
:100CF000032A02E3044A052A09D01950680A06E1CA
:100D0000010E0E6E032A02E3044A052A03C0E9FF1E
:100D100004C0F3FF05505FEC39F0750A06E1010EDF
:100D2000106E032A02E3044A052A03C0E9FF04C047
:100D3000F3FF05505FEC39F0196E730A05E1010EFF
:100D40000D6E200E156E3FD01950780A03E1100E7B
:100D5000116E39D01950580A05E1100E116E010EAE
:100D6000126E31D01950630A02E1116A2CD0195069
:100D70006F0A03E1080E116E26D01950660A03E1CE
:100D8000010E0F6E20D01950640A1DE01950690A37
:100D90001AE0105005E0FF0E03260422052213D0AE
:100DA0001950E56E0250E56E0150E56E0050E56E9B
:100DB000FCEC2BF0040EE126094A0A2A032A02E37E
:100DC000044A052AA0D60D5021E00650030F0D6EEF
:100DD000000E0720196E000E08201A6E0DC006F0D6
:100DE00019C007F01AC008F0FD0E0D26FF0E1922DB
:100DF0001A220DC0E9FF19C0F3FF1A503BEC38F07E
:100E00000D6EF3CF19F0F4CF1AF032D10F50D8B4E1
:100E10003ED00650040F0F6E000E07201B6E000E12
:100E200008201C6E0FC006F01BC007F01CC008F0A5
:100E3000FC0E0F26FF0E1B221C220FC0E9FF1BC059
:100E4000F3FF1C50A4EC37F00F6EF3CF1BF0F4CF80
:100E50001CF0E9CF1DF0040E196E000E0D6E800E11
:100E60001A6E1650E56E240EE56E040EE56E000E49
:100E7000E56E1D50E56E1C50E56E1B50E56E0F5083
:100E8000E56E6AEC20F0080EE1261668F1D01668CF
:100E90000C5023E00650040F0C6E000E07200F6E5E
:100EA000000E08201B6E0CC006F00FC007F01BC020
:100EB00008F0FC0E0C26FF0E0F221B220CC0E9FFCF
:100EC0000FC0F3FF1B50A4EC37F00C6EF3CF0FF004
:100ED000F4CF1BF0E9CF1CF06AD00E5032E0065080
:100EE000020F0E6E000E07201D6E000E08201E6EF3
:100EF0000EC006F01DC007F01EC008F0FE0E0E2644
:100F0000FF0E1D221E220EC0E9FF1DC0F3FF1E5062
:100F1000FAEC38F00E6E0EC00CF0E86A0EBEFF0E52
:100F20000F6E1B6E1C6E11500A0A03E11050D8B4EC
:100F30003ED00C500E6E0EC00CF00F6A1B6A1C6A7D
:100F400036D00650020F0E6E000E07201D6E000EEA
:100F500008201E6E0EC006F01DC007F01EC008F06F
:100F6000FE0E0E26FF0E1D221E220EC0E9FF1DC022
:100F7000F3FF1E50FAEC38F00E6EF3CF1DF00EC0EA
:100F80000CF01DC00FF0E86A1DBEFF0E1B6E1C6E3C
:100F900011500A0A02E110500AE00C500E6E0F5078
:100FA0001D6E0EC00CF01DC00FF01B6A1C6A040EF3
:100FB000196E010E0D6E800E1A6E1150D8B440D00D
:100FC000105013E01150E56E040EE56E010EE56E53
:100FD0001C50E56E1B50E56E0F50E56E0C50E56E33
:100FE00075EC24F0070EE12612D01150E56E040EC8
:100FF000E56E010EE56E1C50E56E1B50E56E0F5060
:10100000E56E0C50E56E29EC2FF0070EE126175027
:101010002FE00DC0E9FF19C0F3FF1A505FEC39F063
:101020002D0A26E0FF0E0D2619221A2218C0E5FF10
:101030000DC0E9FF19C0F3FF1A50DDEC39F018D0EC
:101040000CC0E5FF0DC0E9FF19C0F3FF1A50DDEC3D
:1010500039F00D50010F0C6E000E19200E6E000EAF
:101060001A20E56A0CC0E9FF0EC0F3FFDDEC39F091
:101070000DC00CF019C00EF01AC00FF013C010F024
:10108000105010E00CC0E9FF0EC0F3FF0F505FECF2
:1010900039F0176E175006E00C2A02E30E4A0F2AA9
:1010A0001006EED710C013F014501EE109C00CF06A
:1010B0000AC00EF010C00FF00F5010E01550E56E92
:1010C0000250E56E0150E56E0050E56EFCEC2BF031
:1010D000040EE1260C4A0E2A0F06EED70CC009F0CA
:1010E0000EC00AF00FC013F016C00CF00DC00DF0CA
:1010F00019C00EF01AC00FF009C010F00AC015F0A8
:101100000DC0E9FF0EC0F3FF0F505FEC39F0166E13
:101110001650D8B43ED00CC016F0176A161E171E13
:101120001650171005E00CC016F00C06165031E0F2
:101130000DC0E9FF0EC0F3FF0F505FEC39F0116EE8
:10114000125010E01150E56EB7EC38F0166EE65212
:10115000165004E01150166E169A02D011C016F007
:1011600016C011F01150E56E0250E56E0150E56EAB
:101170000050E56EFCEC2BF0040EE1260D2A02E394
:101180000E4A0F2A104A152A1350D8B4B9D713069D
:10119000B7D710C009F015C00AF014502BE010C0EA
:1011A0000CF015C00DF013C00EF00E501FE0200E15
:1011B000E56E0250E56E0150E56E0050E56EFCEC08
:1011C0002BF0040EE1260C4A0D2A0E06EED70B502A
:1011D000E56E0250E56E0150E56E0050E56EFCECE8
:1011E0002BF0040EE126094A0A2A04D00CC009F0AB
:1011F0000DC00AF0032A02E3044A052A83EF05F032
:101200000AC0F3FF0950E4CF1EF0E4CF1DF0E4CF95
:101210001CF0E4CF1BF0E4CF1AF0E4CF19F0E4CFD8
:1012200018F0E4CF17F0E4CF16F0E4CF15F0E4CFD8
:1012300014F0E4CF13F0E4CF12F0E4CF11F0E4CFD8
:1012400010F0E4CF0FF0E4CF0EF0E4CF0DF0E4CFD8
:101250000CF0E4CF0BF0E4CF0AF0E4CF09F0E4CFD8
:1012600008F0E4CF07F0E4CF06F0E4CF05F0E4CFD8
:1012700004F0E4CF03F0E4CF02F0E4CF01F0E4CFD8
:1012800000F0E4CFD9FF1200D9CFE5FFE1CFD9FFBD
:1012900000C0E5FF01C0E5FF02C0E5FF03C0E5FFB8
:1012A00004C0E5FF05C0E5FF06C0E5FF07C0E5FF98
:1012B00008C0E5FF09C0E5FF0AC0E5FF0BC0E5FF78
:1012C0000CC0E5FF0DC0E5FF020EDBCF00F0030E02
:1012D000DBCF01F0040EDBCF02F00050090F066EE9
:1012E000000E0120076E000E0220086E0B6E0750E4
:1012F0000A6E0650096EE56A0D0EE56E0B50E56E3E
:101300000A50E56E0950E56E800EE56E0A0EE56E38
:10131000830EE56E85EC2CF0080EE12600C009F086
:1013200001C00AF002C00BF0E56AE56E0B50E56EF5
:101330000A50E56E0950E56E800EE56E040EE56E0E
:10134000810EE56E85EC2CF0080EE12681C403F0D9
:101350000350010A04E00350030A01E01FD10A010F
:101360008B510A01985D036E0A018C510A0199594B
:10137000046E0A018D510A019A590A018E510A011F
:101380009B5903500A01E26F0450E36F0A01985120
:101390000A018B6F0A0199510A018C6F0A019A5157
:1013A0000A018D6F0A019B510A018E6F0A01E251F9
:1013B000E311D8A47FD08EEC36F0036EF3CF04F0A7
:1013C000F4CF05F0E9CF09F00A0190510A6E91516E
:1013D0000B6E92510C6E93510D6E0A50035E0B50C2
:1013E000045A0C50055A0D50095A03500A01A16FB6
:1013F0000450A26F0550A36F7F0E0914A46F0A0159
:101400008FB125D00A01A235A431046EA331036E39
:10141000043404320332000E04BEFF0E096E056E62
:1014200086C40AF00B6A0C6A0D6A0D50800FF36EC9
:101430000950800FF35C08E105500C5C05E1045095
:101440000B5C02E103500A5C02E20A018F810A018F
:101450008FB14AD087CA03F088CA04F089CA05F060
:101460008ACA09F00A01A451800FF36E0950800F57
:10147000F35C08E10550A35D05E10450A25D02E1C3
:101480000350A15D08E203C0A1FA04C0A2FA05C09E
:10149000A3FA09C0A4FA0A019CA303D0010E036EAB
:1014A00001D0036803C0E2FA0A01E36B03AE01D086
:1014B000E3691AD00A018F9194CAA1FA95CAA2FAD7
:1014C00096CAA3FA97CAA4FA0A01A1510A01876F22
:1014D0000A01A2510A01886F0A01A3510A01896F0A
:1014E0000A01A4510A018A6F0A01A451800F800FDA
:1014F00008E1000EA35D05E1000EA25D02E1010E10
:10150000A15D06E20A01A56BA66BA76BA86B46D08E
:101510000A01A151036EA251046EA351056EA4519C
:10152000E56E0550E56E0450E56E0350E56E010E64
:10153000E56E000EE56AE56AE56A5CEC2AF0036E8A
:10154000F3CF04F0F4CF05F0E9CF09F0080EE1265F
:10155000E2CA0AF0E3CA0BF0E86A0A01E3BFFF0E31
:101560000C6E0D6E0950E56E0550E56E0450E56E8B
:101570000350E56E0D50E56E0C50E56E0B50E56EB8
:101580000A50E56E7CEC21F00A01A56FF3CFA6FAB4
:10159000F4CFA7FAE9CFA8FA080EE126020E04015B
:1015A000815DD8A045D10A019CA142D10050230FF2
:1015B000036E000E0120046E000E0220E56E045042
:1015C000E56E0350E56E0EEC00F0030EE1260050D0
:1015D000230F036E000E0120046E000E0220056E24
:1015E000020E0326000E0422052203C0E9FF04C0F8
:1015F000F3FF0550A4EC37F0F3CF04F0F4CF05F07F
:10160000E9CF09F00450036E0550046ED8900432FF
:101610000332D890043203320950E840E840C00B4E
:1016200004120940E8403F0BE8BAC009056E096A98
:1016300005BE09680A019851035C0A01A96F0A01F5
:10164000995104580A01AA6F0A019A5105580A01D2
:10165000AB6F0A019B5109580A01AC6FD880ACAF3F
:10166000D89022E30401831D046E821D036E034A99
:10167000042AE86A04BEFF0E056E096E0A01AC5129
:10168000800FF36E0950800FF35C08E10550AB5DED
:1016900005E10450AA5D02E10350A95D05E30A01DA
:1016A000A96BAA6BAB6BAC6B0A01AC51800F800FBE
:1016B00008E1000EAB5D05E1000EAA5D02E1010E3E
:1016C000A95D1EE382C403F083C404F0E86A040148
:1016D00083BFFF0E056E800FF36E0A01AC51800FC1
:1016E000F35C08E1AB51055C05E1AA51045C02E141
:1016F000A951035C05E30A01A96BAA6BAB6BAC6B48
:101700000401875109E0E86CD8900A01A937AA378B
:10171000AB37AC37010FF9E30A01AC51800F800FF2
:1017200008E1000EAB5D05E1800EAA5D02E1000E4E
:10173000A95D07E30A01A9697F0EAA6FAB6BAC6BC9
:1017400014D00A01AC51800F810F08E1FF0EAB5D90
:1017500005E1800EAA5D02E1000EA95D06E20A0124
:10176000A96B800EAA6FAB69AC690050330F036E92
:10177000000E0120046E000E0220056E0A01A95120
:10178000096EAA51E56E0950E56E0550E56E0450EC
:10179000E56E0350E56EABEC12F0050EE126040198
:1017A0008151030A23E10050330F036E000E012024
:1017B000046E000E0220056E0B0E0326000E04229E
:1017C000052203C0E9FF04C0F3FF0550A4EC37F085
:1017D000F3CF04F0F4CF05F00450036E0550046E0F
:1017E00003500A01836F0450846F22D00050330FDE
:1017F000036E000E0120046E000E0220056E0B0E1B
:101800000326000E0422052203C0E9FF04C0F3FFF3
:101810000550A4EC37F0F3CF04F0F4CF05F00450FA
:10182000036E0550046E03500A01856F0450866FE5
:1018300081C403F00350010A04E00350030A01E0ED
:101840007DD083CA03F084CA04F0E86A0A0184BF29
:10185000FF0E056E096E0A01A551035C0A01A96F0E
:101860000A01A65104580A01AA6F0A01A751055896
:101870000A01AB6F0A01A85109580A01AC6F800F29
:10188000800F08E1000EAB5D05E1800EAA5D02E16C
:10189000000EA95D07E30A01A9697F0EAA6FAB6B71
:1018A000AC6B14D00A01AC51800F810F08E1FF0E20
:1018B000AB5D05E1800EAA5D02E1000EA95D06E2C6
:1018C0000A01A96B800EAA6FAB69AC690050440F86
:1018D000036E000E0120046E000E0220056E0A0148
:1018E000A951096EAA51E56E0950E56E0550E56EE5
:1018F0000450E56E0350E56EABEC12F0050EE126E8
:10190000440E0026000E012202220B0E0026000EBD
:101910000122022200C0E9FF01C0F3FF0250A4EC43
:1019200037F0F3CF01F0F4CF02F00150006E025017
:10193000016E00500A01856F0150866F0850086ED5
:10194000E56A0D0EE56E800EE56E0A0EE56E830EFD
:10195000E56E0850E56E0750E56E0650E56E85ECC5
:101960002CF0080EE126E4CF0DF0E4CF0CF0E4CF2C
:101970000BF0E4CF0AF0E4CF09F0E4CF08F0E4CFB5
:1019800007F0E4CF06F0E4CF05F0E4CF04F0E4CFB5
:1019900003F0E4CF02F0E4CF01F0E4CF00F0E4CFB5
:1019A000D9FF120025642025640A000005C0E5FF68
:1019B00006C0E5FF07C0E5FF08C0E5FF09C0E5FF79
:1019C0000AC0E5FF0BC0E5FF0CC0E5FF0DC0E5FF59
:1019D0000EC0E5FF0FC0E5FF10C0E5FF11C0E5FF39
:1019E00012C0E5FF13C0E5FF14C0E5FF15C0E5FF19
:1019F00016C0E5FF17C0E5FF18C0E5FF19C0E5FFF9
:101A00001AC0E5FF1BC0E5FF1CC0E5FF1DC0E5FFD8
:101A1000000E00B0050F066AF60F02E3062AFCD797
:101A20000A0F056E042E03D0FB0F01E3062A0650B1
:101A300000B0020F00B2050F076AF60F02E3072A93
:101A4000FCD70A0F066E042E03D0FB0F01E3072A12
:101A5000075000B0060F00B2020F00B4050F086A6D
:101A6000F60F02E3082AFCD70A0F076E042E03D0F4
:101A7000FB0F01E3082A085000B2010F00B4020F67
:101A800000B6050F096AF60F02E3092AFCD70A0F10
:101A9000086E042E03D0FB0F01E3092A095000B0A1
:101AA000090F00B2080F00B4060F00B6020F00B80D
:101AB000050F0A6AF60F02E30A2AFCD70A0F096E1D
:101AC000042E03D0FB0F01E30A2A0A5000B0030FD3
:101AD00000B2070F00B4050F00B6010F00B8020FE7
:101AE00000BA050F0B6AF60F02E30B2AFCD70A0FA8
:101AF0000A6E042E03D0FB0F01E30B2A0B5000B03B
:101B0000050F00B4010F00B6030F00B8060F00BAAE
:101B1000020F00BC050F0C6AF60F02E30C2AFCD77B
:101B20000A0F0B6E042E03D0FB0F01E30C2A0C509E
:101B300000B0070F00B2050F00BA010F00BC020F82
:101B400000BE050F0D6AF60F02E30D2AFCD70A0F3F
:101B50000C6E042E03D0FB0F01E30D2A0D5000B0D4
:101B6000070F00B2050F00B4010F00B6020F00B856
:101B7000040F00BA080F00BC060F00BE020F01B030
:101B8000050F0E6AF60F02E30E2AFCD70A0F0D6E40
:101B9000042E03D0FB0F01E30E2A0E5000B0040FF9
:101BA00000B2090F00B4090F00B6080F00B8060F05
:101BB00000BA020F00BC050F00BE010F01B0020FFA
:101BC00001B2050F0F6AF60F02E30F2AFCD70A0FC6
:101BD0000E6E042E03D0FB0F01E30F2A0F5000B04E
:101BE000040F00B2080F00B4070F00B6050F00B8CD
:101BF000010F00BA030F00BC060F00BE030F01B0B7
:101C0000060F01B2020F01B4050F106AF60F02E3CE
:101C1000102AFCD70A0F0F6E042E03D0FB0F01E32E
:101C2000102A105000B0060F00B2020F00B4050FCA
:101C300000B6010F00B8030F00BA060F00BC020F78
:101C400000BE050F01B2010F01B4020F01B6050F6E
:101C5000116AF60F02E3112AFCD70A0F106E042E48
:101C600003D0FB0F01E3112A115000B0040F00B2A2
:101C7000090F00B4080F00B6070F00B8040F00BA30
:101C8000080F00BC070F00BE040F01B0090F01B21E
:101C9000080F01B4060F01B6020F01B8050F126A52
:101CA000F60F02E3122AFCD70A0F116E042E03D09E
:101CB000FB0F01E3122A125000B4010F00B6030F0C
:101CC00000B8070F00BA040F00BC090F00BE090FCF
:101CD00001B0080F01B2070F01B4050F01B6010FE3
:101CE00001B8020F01BA050F136AF60F02E3132AB7
:101CF000FCD70A0F126E042E03D0FB0F01E3132A48
:101D0000135000B0060F00B2020F00B4040F00B66B
:101D1000080F00B8060F00BA030F00BC060F00BE84
:101D2000030F01B0070F01B2050F01B4010F01B697
:101D3000030F01B8060F01BA020F01BC050F146AA8
:101D4000F60F02E3142AFCD70A0F136E042E03D0F9
:101D5000FB0F01E3142A145000B0090F00B2090F61
:101D600000B4080F00B6060F00B8030F00BA070F43
:101D700000BC040F00BE090F01B0080F01B2070F2D
:101D800001B4050F01BA010F01BC020F01BE050F1E
:101D9000156AF60F02E3152AFCD70A0F146E042EFB
:101DA00003D0FB0F01E3152A155000B0050F00B258
:101DB000010F00B4030F00B6070F00B8050F00BCF9
:101DC000010F00BE020F01B0050F01B2010F01B4F7
:101DD000030F01B6070F01B8040F01BA080F01BCC9
:101DE000060F01BE020F02B0050F166AF60F02E3DE
:101DF000162AFCD70A0F156E042E03D0FB0F01E341
:101E0000162A165000B2010F00B4020F00B6040FDC
:101E100000B8090F00BA090F00BC080F00BE060F7A
:101E200001B0020F01B2050F01B8010F01BA020F94
:101E300001BC050F01BE010F02B0020F02B2050F77
:101E4000176AF60F02E3172AFCD70A0F166E042E44
:101E500003D0FB0F01E3172A175000BA010F00BC93
:101E6000030F00BE070F01B0050F01B4010F01B64B
:101E7000020F01B8040F01BA080F01BC060F01BE22
:101E8000030F02B0060F02B2020F02B4050F186A68
:101E9000F60F02E3182AFCD70A0F176E042E03D0A0
:101EA000FB0F01E3182A185001B0010F01B2030F14
:101EB00001B4060F01B6020F01B8040F01BA080FF2
:101EC00001BC070F01BE050F02B2010F02B4020FE1
:101ED00002B6050F196AF60F02E3192AFCD70A0F9A
:101EE000186E042E03D0FB0F01E3192A195001B616
:101EF000010F01B8020F01BA040F01BC090F01BEA6
:101F0000090F02B0090F02B2080F02B4060F02B6A1
:101F1000020F02B8050F1A6AF60F02E31A2AFCD75D
:101F20000A0F196E042E03D0FB0F01E31A2A1A5070
:101F300001BE010F02B0030F02B2070F02B4050F7A
:101F400002B6010F02B8020F02BA050F1B6AF60FA4
:101F500002E31B2AFCD70A0F1A6E042E03D0FB0FD4
:101F600001E31B2A1B5002B4010F02B6030F02B893
:101F7000060F02BA020F02BC050F1C6AF60F02E33D
:101F80001C2AFCD70A0F1B6E042E03D0FB0F01E3A3
:101F90001C2A1C5002BA010F02BC020F02BE050F20
:101FA0001D6AF60F02E31D2AFCD70A0F1C6E042ED1
:101FB00003D0FB0F01E31D2A300FEE6E1B50300FD4
:101FC000EE6E1A50300FEE6E1950300FEE6E185044
:101FD000300FEE6E1750300FEE6E1650300FEE6E63
:101FE0001550300FEE6E1450300FEE6E1350300F50
:101FF000EE6E1250300FEE6E1150300FEE6E10502C
:10200000300FEE6E0F50300FEE6E0E50300FEE6E42
:102010000D50300FEE6E0C50300FEE6E0B50300F37
:10202000EE6E0A50300FEE6E0950300FEE6E085013
:10203000300FEE6E0750300FEE6E0650300FEE6E22
:102040000550300FEE6E170EE4CF1DF0E4CF1CF0FC
:10205000E4CF1BF0E4CF1AF0E4CF19F0E4CF18F08E
:10206000E4CF17F0E4CF16F0E4CF15F0E4CF14F08E
:10207000E4CF13F0E4CF12F0E4CF11F0E4CF10F08E
:10208000E4CF0FF0E4CF0EF0E4CF0DF0E4CF0CF08E
:10209000E4CF0BF0E4CF0AF0E4CF09F0E4CF08F08E
:1020A000E4CF07F0E4CF06F0E4CF05F0120000C063
:1020B000E5FF01C0E5FF02C0E5FF03C0E5FF05C085
:1020C000E5FF0EEC3AF08EEC36F0F3CF01F0F4CFF2
:1020D00002F0E9CF03F0880F04017C6F130E01209A
:1020E0007D6F000E02207E6F000E03207F6F90EC4C
:1020F00032F0948C820E006E0F0E016E0F0E036E86
:10210000380E0026035001220F0E036E800E005E73
:102110000350015A820E026E0F0E036E0F0E056EF3
:10212000380E0226055003220F0E056E800E025E49
:102130000550035A02C0E9FF03C0EAFFEFCF02F0E7
:10214000029C00C0E9FF01C0EAFF02C0EFFF060EDB
:10215000E56E800EE56E0F0EE56E820EE56E000EEA
:10216000E56AD7EC32F0050EE126948E820E006E01
:102170000F0E016E0F0E036E380E00260350012263
:102180000F0E036E800E005E0350015A820E026E27
:102190000F0E036E0F0E056E380E02260550032239
:1021A0000F0E056E800E025E0550035A02C0E9FF55
:1021B00003C0EAFFEFCF02F0029E00C0E9FF01C0BA
:1021C000EAFF02C0EFFF070EE56E800EE56E0F0E10
:1021D000E56E820EE56E010EE56ED7EC32F0050E6F
:1021E000E126E8EC2AF08A98899C8B840401898591
:1021F0009398929C9494040192959283800E006E21
:10220000040E016E0F0E036E380E002603500122DD
:102210000F0E036E800E005E0350015A800E026E98
:10222000040E036E0F0E056E380E022605500322B3
:102230000F0E056E800E025E0550035A02C0E9FFC4
:1022400003C0EAFFEFCF02F0029200C0E9FF01C035
:10225000EAFF02C0EFFF9283800E006E040E016E53
:102260000F0E036E380E0026035001220F0E036E70
:10227000800E005E0350015A800E026E040E036E43
:102280000F0E056E380E0226055003220F0E056E46
:10229000800E025E0550035A02C0E9FF03C0EAFF48
:1022A000EFCF02F0029200C0E9FF01C0EAFF02C0D6
:1022B000EFFF9283800E006E040E016E0F0E036E10
:1022C000380E0026035001220F0E036E800E005EB2
:1022D0000350015A800E026E040E036E0F0E056E3F
:1022E000380E0226055003220F0E056E800E025E88
:1022F0000550035A02C0E9FF03C0EAFFEFCF02F026
:10230000029200C0E9FF01C0EAFF02C0EFFF0C0E1D
:10231000BD6EBD9ABD98BE6AB96AB9860401936B59
:10232000020E946F956B0A0E966F976B100E986F56
:10233000070E996F9A919A83800EE56E040EE56EF2
:10234000B60EE56E52EC31F0030EE126800EE56E1E
:10235000040EE56ED70EE56E8EEC27F0030EE12637
:10236000800EE56E040EE56EC60EE56E8EEC27F06F
:10237000030EE1260401B16BB26BB36BB46BB59184
:10238000B5959C6B9D6B9E6B9F6BA46BA56BA66BB1
:10239000A76B8A96899E8B80040189859396929E6D
:1023A0009490040192959283800E006E040E016E4B
:1023B0000F0E036E380E0026035001220F0E036E1F
:1023C000800E005E0350015A800E026E040E036EF2
:1023D0000F0E056E380E0226055003220F0E056EF5
:1023E000800E025E0550035A02C0E9FF03C0EAFFF7
:1023F000EFCF02F0029200C0E9FF01C0EAFF02C085
:10240000EFFF9283800E006E040E016E0F0E036EBE
:10241000380E0026035001220F0E036E800E005E60
:102420000350015A800E026E040E036E0F0E056EED
:10243000380E0226055003220F0E056E800E025E36
:102440000550035A02C0E9FF03C0EAFFEFCF02F0D4
:10245000029200C0E9FF01C0EAFF02C0EFFF9283D1
:10246000800E006E040E016E0F0E036E380E0026F5
:10247000035001220F0E036E800E005E0350015ABE
:10248000800E026E040E036E0F0E056E380E0226CD
:10249000055003220F0E056E800E025E0550035A92
:1024A00002C0E9FF03C0EAFFEFCF02F0029200C0D2
:1024B000E9FF01C0EAFF02C0EFFF0C0E666E669AEC
:1024C0006698676A0A01006B020E016F026B0A0EC2
:1024D000036F046B100E056F070E066F07910783DD
:1024E000800EE56E0A0EE56E230EE56E52EC31F0BD
:1024F000030EE126800EE56E0A0EE56E440EE56ED3
:102500008EEC27F0030EE126800EE56E0A0EE56ED6
:10251000330EE56E8EEC27F0030EE1260A011E6BEA
:102520001F6B206B216B22912295096B0A6B0B6B41
:102530000C6B116B126B136B146BE4CF05F0E4CFD3
:1025400003F0E4CF02F0E4CF01F0E4CF00F012009A
:10255000430025630000D9CFE5FFE1CFD9FF00C0DC
:10256000E5FF01C0E5FF02C0E5FF03C0E5FF04C0D1
:10257000E5FF05C0E5FF06C0E5FF07C0E5FF08C0B1
:10258000E5FF09C0E5FF0AC0E5FF0BC0E5FF020E4D
:10259000DBCF00F0030EDBCF01F0040EDBCF02F047
:1025A000050EDBCF03F0060EDBCF04F002500A6EFF
:1025B0000150096E0050086EE56A110EE56E0A5072
:1025C000E56E0950E56E0850E56E800EE56E040E6E
:1025D000E56E240EE56E85EC2CF0080EE12633C482
:1025E00005F034C406F0E86A040134BFFF0E076E3C
:1025F0000A01B46F0650B36F0550B26FB16B03C0E0
:1026000005F004C006F0E86A04BEFF0E076E086E0F
:1026100024C409F0E56AE56AE56A0950E56E0850E8
:10262000E56E0750E56E0650E56E0550E56E7CECF4
:1026300021F00A01AD6FF3CFAEFAF4CFAFFAE9CFD4
:10264000B0FA080EE12604012551D8B4AFD00450E9
:10265000800F800F02E1010E035C25E304012A5183
:10266000800F7C0F08E1000E295D05E1000E285D5A
:1026700002E1000E275D17E204013251800FF36E74
:102680000A01B451800FF35C0DE1B3510401315DD7
:1026900009E10A01B2510401305D04E10A01B151BE
:1026A00004012F5D33E3D88004AED890D8A043D086
:1026B00004012A51800F840F08E1000E295D05E115
:1026C000000E285D02E1010E275D35E30A01B41D0D
:1026D0000A6EB31D096EB21D046EB11D036E032A8E
:1026E00004E1042A02E1094A0A2A0A50800FF36E23
:1026F00004013251800FF35C08E13151095C05E1BE
:102700003051045C02E12F51035C15E205500401D5
:102710002725036E06502821046E07502921096ED3
:1027200008502A210A6E0350276F0450286F095061
:10273000296F0A502A6F040127390F0B036E2839BD
:10274000046EF00B041A03262951E838F00B04122A
:1027500029390F0B096E2A390A6EF00B0A1A09265D
:10276000F00E0AB60A2625C40BF0E56AE56AE56AAA
:102770000B50E56E0A50E56E0950E56E0450E56EAB
:102780000350E56E7CEC21F0036EF3CF04F0F4CF40
:1027900009F0E9CF0AF0080EE12603500A01AD273F
:1027A0000450AE230950AF230A50B0230401265130
:1027B000D8B46CD02B51055C0A01B56F04012C51C3
:1027C00006580A01B66F04012D5107580A01B76F68
:1027D00004012E5108580A01B86F800F800F08E1DC
:1027E000010EB75D05E1000EB65D02E1000EB55DBC
:1027F00007E3FF0E0A01B56FB66FB76BB86B14D065
:102800000A01B851800F810F08E1FF0EB75D05E1A5
:10281000000EB65D02E1000EB55D06E20A01B56B81
:10282000B66BFF0EB76FB86F0A01B831B7310A6ED9
:10283000096A0932B651E8407F0B0912B631B53149
:10284000046E036A033226C40BF0E56AE56AE56AA2
:102850000B50E56E0A50E56E0950E56E0450E56ECA
:102860000350E56E7CEC21F0036EF3CF04F0F4CF5F
:1028700009F0E9CF0AF0080EE12603500A01AD275E
:102880000450AE230950AF230A50B0230550040171
:102890002B6F06502C6F07502D6F08502E6F0A01BA
:1028A000B451800FF36E0A01B051800FF35C0DE15B
:1028B000AF510A01B35D09E10A01AE510A01B25DEF
:1028C00004E10A01AD510A01B15D11E20A01B15101
:1028D00004012F6F0A01B2510401306F0A01B35194
:1028E0000401316F0A01B4510401326F3AD00A0178
:1028F000B41D066EB31D056EB21D046EB11D036ED0
:10290000032A04E1042A02E1054A062A0A01B05119
:10291000800FF36E0650800FF35C08E10550AF5D49
:1029200005E10450AE5D02E10350AD5D0AE20350E3
:1029300004012F6F0450306F0550316F0650326F15
:1029400010D00A01AD5104012F6F0A01AE510401EC
:10295000306F0A01AF510401316F0A01B051040117
:10296000326FE56A110EE56E800EE56E040EE56EBF
:10297000240EE56E0250E56E0150E56E0050E56EE6
:1029800085EC2CF0080EE126E4CF0BF0E4CF0AF042
:10299000E4CF09F0E4CF08F0E4CF07F0E4CF06F08D
:1029A000E4CF05F0E4CF04F0E4CF03F0E4CF02F08D
:1029B000E4CF01F0E4CF00F0E4CFD9FF120000C073
:1029C000E5FF01C0E5FF02C0E5FF03C0E5FF42EC03
:1029D00029F0E7EC26F0F2EC1AF08EEC36F0006EFF
:1029E000F3CF01F0F4CF02F0E9CF03F004017C5102
:1029F000005E7D51015A7E51025A7F51035A039E57
:102A00003F0E035C08E1FF0E025C05E1FF0E015C76
:102A100002E1FF0E005CD8B0ECEF16F08EEC36F061
:102A2000F3CF01F0F4CF02F0E9CF03F0880F0401F7
:102A30007C6F130E01207D6F000E02207E6F000E52
:102A400003207F6F88EC23F004C0E5FFF2CF04F091
:102A5000F29E0401A9510A01906F0401AA510A01D2
:102A6000916F0401AB510A01926F0401AC510A014C
:102A7000936F0401AD510A01946F0401AE510A0134
:102A8000956F0401AF510A01966F0401B0510A011C
:102A9000976F0401B1510A01986F0401B2510A0104
:102AA000996F0401B3510A019A6F0401B4510A01EC
:102AB0009B6F0401B5510A019C6F0401AD6BAE6BB5
:102AC000AF6BB06B04BEF28EE4CF04F0800EE56E07
:102AD000040EE56E930EE56E44EC09F0030EE1265C
:102AE0009EC4E4FA9FC4E5FA0A01E551800F7C0F09
:102AF00002E1000EE45D04E30A01E469030EE56F00
:102B00000A01E551800F840F02E1010EE45D05E248
:102B1000010E0A01E46FFC0EE56F0A01E551800F1A
:102B2000800F02E1010EE45D10E30A01E551800F20
:102B3000F36E04019751800FF35C03E196510A0193
:102B4000E45D03E20A01E46BE56BD8800A01E5AFBE
:102B5000D89015E30401971D016E961D006E004A82
:102B6000012A0150800FF36E0A01E551800FF35CDA
:102B700002E1E451005C03E20A01E46BE56B04014D
:102B80009AA309D0B5A507D0D8800A01E5AFD8909F
:102B900002E3E46BE56BD8800A01E5AFD89007E368
:102BA000E51D016EE41D006E004A012A04D0E4CA4E
:102BB00000F0E5CA01F000C0E6FA01C0E7FA0A0138
:102BC000E651020BE840010BE838E844F46EBD50D2
:102BD000DF0BF410BD6EE651010B010BE838F46E0B
:102BE000BD50EF0BF410BD6EE735E731016EE631F5
:102BF000006E0134013200320050BE6ED8800A01EE
:102C0000E5AFD89003E38A98898C02D0899C8A88A2
:102C100004C0E5FFF2CF04F0F29E0A0116510A014A
:102C2000906F0A0117510A01916F0A0118510A01A8
:102C3000926F0A0119510A01936F0A011A510A0190
:102C4000946F0A011B510A01956F0A011C510A0178
:102C5000966F0A011D510A01976F0A011E510A0160
:102C6000986F0A011F510A01996F0A0120510A0148
:102C70009A6F0A0121510A019B6F0A0122510A0130
:102C80009C6F0A011A6B1B6B1C6B1D6B04BEF28ED2
:102C9000E4CF04F0800EE56E0A0EE56E000EE56EE0
:102CA00044EC09F0030EE1260BCAE4FA0CCAE5FA7B
:102CB0000A01E551800F7C0F02E1000EE45D04E3A0
:102CC0000A01E469030EE56F0A01E551800F840FE4
:102CD00002E1010EE45D05E2010E0A01E46FFC0E63
:102CE000E56F0A01E551800F800F02E1010EE45DFE
:102CF00010E30A01E551800FF36E0A010451800FC1
:102D0000F35C03E103510A01E45D03E20A01E46BB1
:102D1000E56BD8800A01E5AFD89015E30A01041DE0
:102D2000016E031D006E004A012A0150800FF36EF0
:102D30000A01E551800FF35C02E1E451005C03E21B
:102D40000A01E46BE56B0A0107A309D022A507D0AD
:102D5000D8800A01E5AFD89002E3E46BE56BD88038
:102D60000A01E5AFD89007E3E51D016EE41D006E92
:102D7000004A012A04D0E4CA00F0E5CA01F000C00C
:102D8000E6FA01C0E7FA0A01E651020BE840010B3E
:102D9000E838E844F46E6650DF0BF410666EE651D6
:102DA000010B010BE838F46E6650EF0BF410666E01
:102DB000E735E731016EE631006E01340132003251
:102DC0000050676ED8800A01E5AFD89003E38A9679
:102DD000898E02D0899E8A86E4CF03F0E4CF02F088
:102DE000E4CF01F0E4CF00F0120000C0E5FF01C025
:102DF000E5FF02C0E5FF03C0E5FFF0A274D00A01C1
:102E00007D517E117F11801129E08EEC36F0006E2D
:102E1000F3CF01F0F4CF02F0E9CF03F00A017D51C6
:102E2000005E7E51015A7F51025A8051035A039E1F
:102E3000000E035C08E1000E025C05E1230E015C5C
:102E400002E1280E005CD870006A0036016A00BEFC
:102E5000016800500401366F0150376F33CF7DFA9F
:102E600034CF7EFA35CF7FFA36CF80FAF092006AFF
:102E7000040135B1002A0050010BE844F46E3551CD
:102E8000FD0BF410356F8B928B968B988B9A040107
:102E90008995899589958995040135A303D0EBCA55
:102EA00000F002D0EACA00F000C003F1040135A32B
:102EB00005D0BBCA00F0BCCA01F004D0B9CA00F00A
:102EC000BACA01F000C0E8FA01C0E9FA0F014E9158
:102ED0000A01E9510F01506F0A01E8510F014F6FCC
:102EE0007E920F014E817EA285D10F014E917E927E
:102EF000040135A3C0D0080E0101035DD8B078D11C
:102F0000FA6AFB6A0335FA36E834FA36FC0B1E0F10
:102F1000E56E2F0EFA22000EFB22E450F96E9FEFB1
:102F200017F0B2EF17F0C5EF17F0D8EF17F0EBEF8F
:102F300017F0FFEF17F013EF18F027EF18F08B8260
:102F40005DCA03F101010351080A01E151D10001F9
:102F5000F1510F01506F0001F0510F014F6F0F0140
:102F60004E8146D18B865ECA03F101010351080AE6
:102F700001E13ED10001F3510F01506F0001F25108
:102F80000F014F6F0F014E8133D18B885FCA03F160
:102F900001010351080A01E12BD10001F5510F0194
:102FA000506F0001F4510F014F6F0F014E8120D17E
:102FB0008B8A60CA03F101010351080A01E118D1AB
:102FC0000001F7510F01506F0001F6510F014F6FD3
:102FD0000F014E810DD10401898561CA03F1010100
:102FE0000351080A01E104D10001F9510F01506FAA
:102FF0000001F8510F014F6F0F014E81F9D004010C
:10300000898562CA03F101010351080A01E1F0D088
:103010000001FB510F01506F0001FA510F014F6F7A
:103020000F014E81E5D00401898563CA03F10101D6
:103030000351080A01E1DCD00001FD510F01506F7E
:103040000001FC510F014F6F0F014E81D1D00401DF
:10305000898564CA03F101010351080A01E1C8D05E
:103060000001FF510F01506F0001FE510F014F6F22
:103070000F014E81BDD0080E0101035DD8B0B8D05C
:10308000FA6AFB6A0335FA36E834FA36FC0B9E0F0F
:10309000E56E300EFA22000EFB22E450F96E5FEF6F
:1030A00018F072EF18F085EF18F098EF18F0ABEF0A
:1030B00018F0BFEF18F0D3EF18F0E6EF18F08B829E
:1030C00055CA03F101010351080A01E191D0000141
:1030D000E1510F01506F0001E0510F014F6F0F01DF
:1030E0004E8186D08B8656CA03F101010351080A2E
:1030F00001E17ED00001E3510F01506F0001E25168
:103100000F014F6F0F014E8173D08B8857CA03F1A7
:1031100001010351080A01E16BD00001E5510F01E3
:10312000506F0001E4510F014F6F0F014E8160D0CD
:103130008B8A58CA03F101010351080A01E158D0F2
:103140000001E7510F01506F0001E6510F014F6F71
:103150000F014E814DD00401898559CA03F1010147
:103160000351080A01E144D00001E9510F01506FF9
:103170000001E8510F014F6F0F014E8139D004015A
:1031800089855ACA03F101010351080A01E130D0CF
:103190000001EB510F01506F0001EA510F014F6F19
:1031A0000F014E8125D0040189855BCA03F101011D
:1031B0000351080A1DE00001ED510F01506F00019D
:1031C000EC510F014F6F0F014E8112D00401898520
:1031D0005CCA03F101010351080A0AE00001EF5142
:1031E0000F01506F0001EE510F014F6F0F014E8123
:1031F00086EC22F0E4CF03F0E4CF02F0E4CF01F05C
:10320000E4CF00F01200D9CFE5FFE1CFD9FF00C035
:10321000E5FF01C0E5FF02C0E5FF03C0E5FF04C014
:10322000E5FF05C0E5FF06C0E5FF07C0E5FF08C0F4
:10323000E5FF09C0E5FF0AC0E5FF020EDBCF00F0A5
:10324000030EDBCF01F0040EDBCF02F0036A046A49
:10325000B8EC36F0056EFE0A01E077D0FEEC30F0F7
:10326000B8EC36F0066E030E065CD8A05AD0060EF7
:10327000065CD8B056D0FD0E0624076EFA6AFB6ACB
:103280000734FA36E834FA36FC0B9A0FE56E320E44
:10329000FA22000EFB22E450F96E53EF19F065EFAD
:1032A00019F07EEF19F00050090F076E000E012093
:1032B000086E000E022007C0E9FF08C0F3FFFAEC19
:1032C00038F0036EF3CF04F02CD00050090F076ED6
:1032D000000E0120086E000E0220096E020E072665
:1032E000000E0822092207C0E9FF08C0F3FF0950B9
:1032F000FAEC38F0036EF3CF04F013D00050070F50
:10330000076E000E0120086E000E022007C0E9FFC4
:1033100008C0F3FF5FEC39F0010B076E07C003F044
:10332000046A06C007F00450E56E0350E56EE56AD6
:103330000750E56E000EE56E190EE56EA40EE56E03
:103340005DEC33F0070EE12634D1070E055CD8B0F2
:1033500030D1FA6AFB6A0534FA36E834FA36FC0BE7
:10336000700FE56E330EFA22000EFB22E450F96E68
:10337000C6EF19F0E1EF19F0F3EF19F005EF1AF0CD
:1033800037EF1AF06DEF1AF08CEF1AF00050230FA0
:10339000036E000E0120046E000E0220E56E045044
:1033A000E56E0350E56EE0EC1DF0030EE126020E23
:1033B000E56E00C0E9FF01C0F3FF0250DDEC39F01B
:1033C000F8D00050330F036E000E0120046E000E83
:1033D0000220E56E0450E56E0350E56E2CEC1FF004
:1033E000030EE126E6D00050440F036E000E0120CC
:1033F000046E000E0220E56E0450E56E0350E56E8B
:103400002CEC1FF0030EE126D4D00050090F036E00
:10341000000E0120046E000E0220056EB8EC36F09E
:103420000A6E096AE56A0AC0F4FF03C0E9FF04C036
:10343000F3FF0550BAEC39F0B8EC36F0086A09260B
:1034400008500A2209C0E5FF0AC0F4FF03C0E9FFE3
:1034500004C0F3FF0550BAEC39F0010EE56E00C070
:10346000E9FF01C0F3FF0250DDEC39F0A2D00050BB
:10347000090F036E000E0120046E000E0220056E7F
:10348000020E0326000E04220522B8EC36F00A6E66
:10349000096AE56A0AC0F4FF03C0E9FF04C0F3FF4C
:1034A0000550BAEC39F0B8EC36F0086A0926085035
:1034B0000A2209C0E5FF0AC0F4FF03C0E9FF04C007
:1034C000F3FF0550BAEC39F0E56A00C0E9FF01C02E
:1034D000F3FF0250DDEC39F06CD00050070F036EA3
:1034E000000E0120046E000E0220056EB8EC36F0CE
:1034F000010BF46E03C0E9FF04C0F3FF05505FEC5D
:1035000039F0FE0BF410E56E03C0E9FF04C0F3FFD1
:103510000550DDEC39F04DD0B8EC36F0066E0050B9
:10352000160F036E000E0120046E000E0220056EC1
:1035300003500C0F076E000E0420086E000E0520CD
:10354000096E0650010BF46E07C0E9FF08C0F3FFD7
:1035500009505FEC39F0FE0BF410E56E07C0E9FF8F
:1035600008C0F3FF0950DDEC39F00650010A21E1F3
:10357000080E0326000E04220522E56AF46AF66AA4
:10358000F76A03C0E9FF04C0F3FF055070EC39F09F
:10359000230E0026000E01220222E56AE56A02508F
:1035A000E56E0150E56E0050E56ECFEC29F0050E9A
:1035B000E126E4CF0AF0E4CF09F0E4CF08F0E4CF4D
:1035C00007F0E4CF06F0E4CF05F0E4CF04F0E4CF59
:1035D00003F0E4CF02F0E4CF01F0E4CF00F0E4CF59
:1035E000D9FF120000C0E5FF01C0E5FF02C0E5FF02
:1035F00003C0E5FF04C0E5FF05C0E5FF06C0E5FF29
:1036000007C0E5FF08C0E5FF09C0E5FF0AC0E5FF08
:103610000BC0E5FF0CC0E5FF040135A509D0006A29
:1036200035B1002A016A35B3012A0050011801E0C2
:1036300056D104013595010E006E00C001F0015015
:10364000D8B453D00104026E8A0E0224036E046AB9
:10365000040E042203C0E9FF04C0EAFFEFCF05F027
:103660000550020DF450076EF3CF06F0E80E062663
:10367000040E072206C0E9FF07C0EAFFEECF06F0FE
:10368000EFCF07F08A0E0124086E096A040E0922A2
:1036900008C0E9FF09C0EAFFEFCF0AF00A50020DA7
:1036A000F4500C6EF3CF0BF0E80E0B26040E0C2238
:1036B0000BC0E9FF0CC0EAFFEECF0BF0EFCF0CF030
:1036C00007500C5C02E106500B5C0FE203C0E9FFFF
:1036D00004C0EAFF0AC0EFFF08C0E9FF09C0EAFF23
:1036E00005C0EFFF02C001F0AAD7002A080E005C57
:1036F000D8A0A3D7006A040135B1002A005003E125
:10370000006A002A01D0006A016A00BE0168EA0E60
:1037100000260A0E01228AC402F000C0E9FF01C09F
:10372000EAFF02C0EFFF006A040135B1002A005031
:1037300003E1006A002A01D0006A0050020DF45033
:1037400000BE0208016EF3CF00F0B90E00260A0E8B
:10375000012204018A51020DF450036EF3CF02F0EE
:10376000E80E0226040E032202C0E9FF03C0EAFFAE
:10377000EECF02F0EFCF03F00250FF08026EFF0E13
:10378000035600C0E9FF01C0EAFF02C0EEFF03C01C
:10379000EFFF006A8A0E0024016E026A040E022204
:1037A00001C0E9FF02C0EAFFEFCF05F0040135B127
:1037B00002D0080E0526550E0524016E026A0A0E77
:1037C00002220028036E8A0E0324046E066A040E89
:1037D000062204C0E9FF06C0EAFFEFCF07F001C0F0
:1037E000E9FF02C0EAFF07C0EFFF0550020DF450E9
:1037F000026EF3CF01F0E00E0126000E022204C09B
:10380000E9FF06C0EAFFEFCF04F00450020DF450C8
:10381000066EF3CF04F0E80E0426040E062204C060
:10382000E9FF06C0EAFFEECF04F0EFCF06F08A0E04
:103830000024076E086A040E082207C0E9FF08C0CA
:10384000EAFFEFCF07F00750020DF450086EF3CFF8
:1038500007F0E80E0726040E082207C0E9FF08C09B
:10386000EAFFEECF07F0EFCF08F00750045E0850F4
:10387000065A0450FF08046EFF0E065601C0E9FF09
:1038800002C0EAFF04C0EEFF06C0EFFF03C000F075
:10389000070E005CD8A07ED791C405F0040135B1B5
:1038A00002D0080E0526006A550E05260A0E0022D3
:1038B00005C0E9FF00C0EAFF080EEF6E006A0401D0
:1038C00035B1002A0050D880E866D890006A0036EA
:1038D0000050010BF46E3551FE0BF410356FE4CF40
:1038E0000CF0E4CF0BF0E4CF0AF0E4CF09F0E4CF22
:1038F00008F0E4CF07F0E4CF06F0E4CF05F0E4CF22
:1039000004F0E4CF03F0E4CF02F0E4CF01F0E4CF21
:1039100000F0120000C0E5FF01C0E5FF02C0E5FFB6
:1039200003C0E5FF04C0E5FF05C0E5FF06C0E5FFF5
:1039300007C0E5FF08C0E5FF09C0E5FF0AC0E5FFD5
:103940000BC0E5FF0CC0E5FF0DC0E5FF0EC0E5FFB5
:10395000000E00B0010F00B2020F00B4040F00B659
:10396000080F00B8060F00BA020F00BC040F00BE1B
:10397000080F01B0060F01B2020F01B4040F01B627
:10398000080F01B8060F01BA020F01BC040F01BEF7
:10399000080F02B0060F02B2020F02B4040F02B603
:1039A000080F02B8060F02BA020F02BC040F02BED3
:1039B000080F056AF60F02E3052AFCD70A0F046E0A
:1039C000055000B8010F00BA030F00BC060F00BE7F
:1039D000020F01B0050F01B2010F01B4020F01B6D1
:1039E000040F01B8090F01BA090F01BC080F01BE8D
:1039F000060F02B0030F02B2070F02B4040F02B6A3
:103A0000080F02B8070F02BA050F066AF60F02E3A5
:103A1000062AFCD70A0F056E065000BE010F01B042
:103A2000020F01B2050F01BA010F01BC030F01BE65
:103A3000070F02B0050F02B4010F02B6020F02B861
:103A4000050F02BA010F02BC030F02BE060F076A80
:103A5000F60F02E3072AFCD70A0F066E075001B4DF
:103A6000010F01B6020F01B8040F01BA080F01BC23
:103A7000060F01BE020F02B0050F02B2010F02B421
:103A8000020F02B6040F02B8080F02BA070F02BCF9
:103A9000040F02BE080F086AF60F02E3082AFCD7DB
:103AA0000A0F076E085001BC010F01BE030F02B0E0
:103AB000060F02B2030F02B4060F02B6020F02B8DD
:103AC000040F02BA090F02BC090F02BE080F096AEF
:103AD000F60F02E3092AFCD70A0F086E095002B25A
:103AE000010F02B4020F02B6050F02BC010F02BEA5
:103AF000030F0A6AF60F02E30A2AFCD70A0F096EBF
:103B00000A5002B8010F02BA020F02BC040F02BE33
:103B1000080F0B6AF60F02E30B2AFCD70A0F0A6E96
:103B20000B500E6A0EE10A5010E1095012E10850E4
:103B300014E1075016E1065018E105501AE104504F
:103B40001CD00E2A300FEE6E0A500E2A300FEE6E89
:103B500009500E2A300FEE6E08500E2A300FEE6E0E
:103B600007500E2A300FEE6E06500E2A300FEE6E02
:103B700005500E2A300FEE6E04500E2A300FEE6EF6
:103B80000E50E4CF0EF0E4CF0DF0E4CF0CF0E4CF14
:103B90000BF0E4CF0AF0E4CF09F0E4CF08F0E4CF73
:103BA00007F0E4CF06F0E4CF05F0E4CF04F0E4CF73
:103BB00003F0E4CF02F0E4CF01F0E4CF00F0120014
:103BC000D9CFE5FFE1CFD9FF00C0E5FF01C0E5FF98
:103BD00002C0E5FF03C0E5FF04C0E5FF05C0E5FF47
:103BE00006C0E5FF07C0E5FF08C0E5FF09C0E5FF27
:103BF0000AC0E5FF0BC0E5FF020EDBCF00F0030EAD
:103C0000DBCF01F0040EDBCF02F0036A046AB8ECEC
:103C100036F0056EFE0A01E063D0FEEC30F0B8EC41
:103C200036F0066E06500AE00650010A19E006500A
:103C3000020A28E006500A0A37E040D00050060F7A
:103C4000076E000E0120086E000E022007C0E9FF7B
:103C500008C0F3FFFAEC38F0036EF3CF04F02ED077
:103C600000500C0F076E000E0120086E000E02209F
:103C700007C0E9FF08C0F3FFFAEC38F0036EF3CF9A
:103C800004F01CD000500E0F076E000E0120086ECD
:103C9000000E022007C0E9FF08C0F3FFFAEC38F07D
:103CA000036EF3CF04F00AD000C0E9FF01C0F3FFB8
:103CB0000250FAEC38F0036EF3CF04F00450E56ED6
:103CC0000350E56EE56A0650E56E000EE56E630E84
:103CD000E56E420EE56E5DEC33F0070EE126A1D0F5
:103CE00005500CE00550010A32E00550020A01E1DE
:103CF00057D005500A0A01E17CD093D00050060F3E
:103D0000056E000E0120066E000E0220076EB8EC54
:103D100036F00B6E0A6AE56A0BC0F4FF05C0E9FFD6
:103D200006C0F3FF0750BAEC39F0B8EC36F0096A78
:103D30000A2609500B220AC0E5FF0BC0F4FF05C09C
:103D4000E9FF06C0F3FF0750BAEC39F06AD0005023
:103D50000C0F056E000E0120066E000E0220076E8D
:103D6000B8EC36F00B6E0A6AE56A0BC0F4FF05C0CA
:103D7000E9FF06C0F3FF0750BAEC39F0B8EC36F0B3
:103D8000096A0A2609500B220AC0E5FF0BC0F4FF9E
:103D900005C0E9FF06C0F3FF0750BAEC39F041D087
:103DA00000500E0F056E000E0120066E000E022060
:103DB000076EB8EC36F00B6E0A6AE56A0BC0F4FFCA
:103DC00005C0E9FF06C0F3FF0750BAEC39F0B8ECC4
:103DD00036F0096A0A2609500B220AC0E5FF0BC01B
:103DE000F4FF05C0E9FF06C0F3FF0750BAEC39F055
:103DF00018D0B8EC36F0046E036AB8EC36F0066AF8
:103E00000326065004220450E56E0350E56E02506E
:103E1000E56E0150E56E0050E56E3CEC35F0050EA8
:103E2000E126E4CF0BF0E4CF0AF0E4CF09F0E4CFD1
:103E300008F0E4CF07F0E4CF06F0E4CF05F0E4CFDC
:103E400004F0E4CF03F0E4CF02F0E4CF01F0E4CFDC
:103E500000F0E4CFD9FF1200D9CFE5FFE1CFD9FFC1
:103E600000C0E5FF01C0E5FF02C0E5FF03C0E5FFBC
:103E700004C0E5FF05C0E5FF06C0E5FF07C0E5FF9C
:103E800008C0E5FF020EDBCF00F0030EDBCF01F030
:103E9000040EDBCF02F0036A046AB8EC36F0056E5C
:103EA000FE0A01E075D0FEEC30F0B8EC36F0066E9C
:103EB000040E065CD8B05AD0FA6AFB6A0634FA36A9
:103EC000E834FA36FC0BD60FE56E3E0EFA22000EF1
:103ED000FB22E450F96E73EF1FF07FEF1FF092EFBB
:103EE0001FF0A5EF1FF000C0E9FF01C0F3FF025073
:103EF0005FEC39F0076E07C003F0046A37D000505A
:103F0000010F076E000E0120086E000E022007C090
:103F1000E9FF08C0F3FF5FEC39F0076E07C003F05C
:103F2000046A24D00050020F076E000E0120086EB4
:103F3000000E022007C0E9FF08C0F3FF5FEC39F074
:103F4000076E07C003F0046A11D000500F0F076E10
:103F5000000E0120086E000E022007C0E9FF08C015
:103F6000F3FFFAEC38F0036EF3CF04F00450E56E83
:103F70000350E56EE56A0650E56E000EE56E500EE4
:103F8000E56E3C0EE56E5DEC33F0070EE1268DD05C
:103F9000040E055CD8B089D0FA6AFB6A0534FA369B
:103FA000E834FA36FC0BB60FE56E3F0EFA22000E2F
:103FB000FB22E450F96EE3EF1FF0F0EF1FF01BEF70
:103FC00020F031EF20F0B8EC36F0036E03C0E5FFCF
:103FD00000C0E9FF01C0F3FF0250DDEC39F065D00D
:103FE0000050010F036E000E0120046E000E02202F
:103FF000056EB8EC36F0066E06C0E5FF03C0E9FFBB
:1040000004C0F3FF0550DDEC39F00650D8A44DD0C4
:104010000050030F036E000E0120046E000E0220FC
:10402000E56AF46AF66AF76A03C0E9FF04C0F3FFC1
:1040300070EC39F03AD00050020F036E000E0120F0
:10404000046E000E0220056EB8EC36F0066E06C057
:10405000E5FF03C0E9FF04C0F3FF0550DDEC39F0D4
:1040600024D00F0E0026000E01220222B8EC36F0FA
:10407000066E056AE56A06C0F4FF00C0E9FF01C0EC
:10408000F3FF0250BAEC39F0B8EC36F0046A0526BA
:104090000450062205C0E5FF06C0F4FF00C0E9FF9A
:1040A00001C0F3FF0250BAEC39F0E4CF08F0E4CFDE
:1040B00007F0E4CF06F0E4CF05F0E4CF04F0E4CF5E
:1040C00003F0E4CF02F0E4CF01F0E4CF00F0E4CF5E
:1040D000D9FF1200D9CFE5FFE1CFD9FF00C0E5FF3E
:1040E00001C0E5FF02C0E5FF03C0E5FF04C0E5FF36
:1040F00005C0E5FF06C0E5FF07C0E5FF08C0E5FF16
:1041000009C0E5FF0AC0E5FF0BC0E5FF020EDBCFEB
:1041100000F0030EDBCF01F0040EDBCF02F0050E42
:10412000DBCF03F0060EDBCF04F0070EDBCF05F08C
:10413000080EDBCF06F0090EDBCF07F006C008F053
:10414000060608500EE006500424086EE86A06BE13
:10415000E8680520096E08C0E9FF09C0EAFFEF6AB8
:10416000EDD700500A01D16F0150D26F0250D36FCA
:104170000350D46FD1CA00F0D2CA01F0D3CA02F002
:10418000D4CA03F0066A086A096A800E03140A6E2C
:10419000065007E1085005E1095003E10A50800A82
:1041A00001E012D0039E00500A01D16F0150D26F7E
:1041B0000250D36F0350D46F04C0E9FF05C0EAFF7B
:1041C0002D0EEF6E044A052A0A01D335D4357E0838
:1041D000006ED151016ED251026E7F0ED315036E67
:1041E000066A038E086A096A0A6A0B6A005019E0B7
:1041F000D88000AED8900EE30850082609360A365B
:104200000B3603BE088001500126023603360636FF
:10421000002AECD7D890063203320232013200066F
:10422000E5D7085009100A100B1012E00550E56E92
:104230000450E56E0B50E56E0A50E56E0950E56ED0
:104240000850E56E63EC36F0006E060EE12608D0ED
:1042500004C0E9FF05C0EAFF300EEF6E010E006EEC
:1042600000500426E86A00BEE8680522075028E0EE
:1042700004C0E9FF05C0EAFF2E0EEF6E002A044AD3
:10428000052A07501808E56E0550E56E0450E56EE6
:104290000650E56E0350E56E0250E56E0150E56E86
:1042A000A5EC35F0016E070EE126015000260750FF
:1042B0000426E86A052204C0E9FF05C0EAFFEF6AA8
:1042C0000050E4CF0BF0E4CF0AF0E4CF09F0E4CFE4
:1042D00008F0E4CF07F0E4CF06F0E4CF05F0E4CF38
:1042E00004F0E4CF03F0E4CF02F0E4CF01F0E4CF38
:1042F00000F0E4CFD9FF1200D9CFE5FFE1CFD9FF1D
:1043000000C0E5FF01C0E5FF02C0E5FF03C0E5FF17
:1043100004C0E5FF05C0E5FF06C0E5FF07C0E5FFF7
:10432000020EDBCF00F0030EDBCF01F0040EDBCF7B
:1043300002F0050EDBCF03F0060EDBCF04F0070E14
:10434000DBCF05F0080EDBCF06F0090EDBCF07F060
:1043500000500A01BD6F0150BE6F0250BF6F035085
:10436000C06F04500A01C16F0550C26F0650C36F81
:104370000750C46F0A01BD510A01C303F4CF01F015
:10438000F3CF00F000500A01C76F0150C86F0A0157
:10439000BD510A01C103F4CF01F0F3CF00F000508A
:1043A0000A01C56F0150C66F0A01C0510A01C1035D
:1043B000F3CF00F00A01C85100260050C86F0A016F
:1043C000BF510A01C203F3CF00F00A01C851002611
:1043D0000050C86F0A01BF510A01C103F4CF01F0B8
:1043E000F3CF00F00A01C7510026C8510122005046
:1043F000C76F0150C86F0A01BE510A01C203F4CF52
:1044000001F0F3CF00F00A01C7510026C851012284
:104410000050C76F0150C86F0A01BE510A01C303A3
:10442000F3CF00F000500A01CC6F0A01BE510A011F
:10443000C103F4CF01F0F3CF00F000500A01CA6FBE
:104440000150CB6F0A01BD510A01C403F3CF00F044
:1044500000500A01D06F0A01BD510A01C203F4CF16
:1044600001F0F3CF00F000500A01CE6F0150CF6F82
:104470000A01C96B0A01CD6B0A01C9510A01C525A0
:10448000006E0A01CA510A01C621016E0A01CB5110
:104490000A01C721026E0A01CC510A01C821036E2C
:1044A0000050C56F0150C66F0250C76F0350C86FF0
:1044B0000A01CD510A01C525006E0A01CE510A013B
:1044C000C621016E0A01CF510A01C721026E0A01FD
:1044D000D0510A01C821036E03C0E9FF02C0F4FFF6
:1044E00001C0F3FF0050E4CF07F0E4CF06F0E4CFC3
:1044F00005F0E4CF04F0E4CF03F0E4CF02F0E4CF22
:1045000001F0E4CF00F0E4CFD9FF120000C0E5FFD6
:1045100001C0E5FF0A017A51D8B4F5D0A3A81DD097
:10452000A4A81BD00A01FA510A01F71905E19EEC73
:1045300039F00A01F76BE7D0000E0A01FA25006E88
:10454000016A0F0E012200C0E9FF01C0EAFFEFCFB0
:10455000F3FAFA2BF3CA73FFD6D0A4AAD4D071A26F
:1045600005D00A01F8819EEC39F0CDD071A405D0B8
:104570000A01F8839EEC39F0C6D071A03ED074CF0A
:10458000F3FA800E0A017B110A01F31904E10A0112
:10459000F8897196B8D00A01F35104E0F3510A0189
:1045A0007B1927E10A01F89971960A01F35103E09A
:1045B0000A01F89702D00A01F887F3CAFCFAF5CA93
:1045C000FDFA0A01F5050A01FE6F600E0A01FD25DC
:1045D000006E016A000E012200C0E9FF01C0EAFF7F
:1045E000F3CAEFFFFD2BFD51800A02E10A01FD6BCA
:1045F0008AD00A01F899718686D074CFF3FA0A013D
:10460000F8A919D0800E0A017B110A01F31911E1F2
:10461000899AA39A71980A01F75104E1736A9EEC92
:1046200039F007D000CF73FF010E0A01FA6FA3889B
:104630006AD0718668D00A01F3510A01FC270A0189
:10464000FD510A01FE191BE10A01FC510CE1FDCAF2
:10465000F5FA0A01F8B712D0899AA39A7198736A89
:104660009EEC39F00BD00A01F885F8B707D0899A8B
:10467000A39A7198010E736E9EEC39F044D00A0132
:10468000FD510A01F61908E10A01F6510A01F5196E
:1046900003E09EEC39F037D0F5CA00F0016A004A19
:1046A000012AE56A800EE56E0150E56E0050E56E68
:1046B00082EC2DF0006E040EE12600500A01F46F2A
:1046C0000A01FD190CE11F0E0A01F3150A01FE6F24
:1046D000FE2BFE2B0A01F5510A01FE27FE9FFDCAA3
:1046E00000F00A01FD2B016A600E0026000E012277
:1046F00000C0E9FF01C0EAFFF3CAEFFFFD51800AE5
:1047000002E10A01FD6BE4CF01F0E4CF00F01200FA
:1047100000C0E5FF01C0E5FF02C0E5FF03C0E5FF03
:1047200004C0E5FF05C0E5FF06C0E5FF07C0E5FFE3
:1047300008C0E5FF09C0E5FF0AC0E5FF006A016A9D
:10474000040E015CD8B0B9D0650E0A018125026E55
:10475000036A0A0E032202C0E9FF03C0EAFFEFCF9B
:1047600002F00250FF0A01E1A1D00A018139E844B8
:104770001F0B026EEE0E0224036E046A0A0E042260
:1047800003C0E9FF04C0EAFFEFCF03F0070E811575
:10479000046E010E056E000E066E045006E0E86C15
:1047A000D89005360636010FFCE3076A055003165C
:1047B00006500716035005E1075003E1036A032A78
:1047C00001D0036A0350D880E866D890036A0336A4
:1047D000076AEC0E02260A0E072202C0E9FF07C094
:1047E000EAFFEFCF08F008C009F00A6A0950051681
:1047F0000A500616055005E1065003E1056A052A30
:1048000001D0056A0550D880E866D890056A05365B
:104810000350051801E14AD0035012E0010E056E65
:10482000045005E0E86CD8900536010FFDE3055013
:10483000081202C0E9FF07C0EAFF08C0EFFF17D067
:1048400002C0E9FF07C0EAFFEFCF05F0010E066ED8
:10485000045005E0E86CD8900636010FFDE3061C15
:10486000051602C0E9FF07C0EAFF05C0EFFF0350CD
:1048700003E1036A032A01D0036A026A03BE0268E5
:1048800081CA04F00250E56E0350E56EE56A0450FB
:10489000E56E000EE56E650EE56EA20EE56E5DEC52
:1048A00033F0070EE126012A01C000F00A01812B36
:1048B000100E815DD8A044D7816B0050E4CF0AF080
:1048C000E4CF09F0E4CF08F0E4CF07F0E4CF06F03E
:1048D000E4CF05F0E4CF04F0E4CF03F0E4CF02F03E
:1048E000E4CF01F0E4CF00F01200D9CFE5FFE1CF33
:1048F000D9FF00C0E5FF01C0E5FF02C0E5FF03C02E
:10490000E5FF04C0E5FF05C0E5FF06C0E5FF07C001
:10491000E5FF08C0E5FF09C0E5FF0AC0E5FF0BC0E1
:10492000E5FF0CC0E5FF0DC0E5FF0EC0E5FF0FC0C1
:10493000E5FF020EDBCF00F0030EDBCF01F0040E2B
:10494000DBCF02F0050EDBCF03F0060EDBCF04F069
:10495000070EDBCF05F0080EDBCF06F0200E076E4A
:10496000086A06C009F00A6A0B6A0C6AE56AE56A19
:10497000E56A0950E56E0350E56E0250E56E0150A0
:10498000E56E0050E56E22EC28F00D6E080EE12673
:10499000300E0D263A0E0D5C05E30D500E6E270EFF
:1049A0000E240D6EFF0E072608225C0E07240E6EE5
:1049B000040E08200F6E0EC0E9FF0FC0EAFF0DC005
:1049C000EFFF0C50E56E0B50E56E0A50E56E095096
:1049D000E56E0350E56E0250E56E0150E56E005045
:1049E000E56E5CEC2AF0006EF3CF01F0F4CF02F03C
:1049F000E9CF03F0080EE126005001100210031069
:104A0000D8A4AFD707C000F008C001F004C002F07E
:104A100005C003F000C004F001C005F0004A012AFF
:104A20005C0E0426040E052204C0E9FF05C0EAFF5F
:104A3000EFCF04F002C0E9FF03C0EAFF04C0EFFFBC
:104A4000024A032A000E015C02E1200E005CE2E350
:104A500002C0E9FF03C0EAFF000EEF6AE4CF0FF0E7
:104A6000E4CF0EF0E4CF0DF0E4CF0CF0E4CF0BF088
:104A7000E4CF0AF0E4CF09F0E4CF08F0E4CF07F088
:104A8000E4CF06F0E4CF05F0E4CF04F0E4CF03F088
:104A9000E4CF02F0E4CF01F0E4CF00F0E4CFD9FF9F
:104AA0001200D9CFE5FFE1CFD9FF00C0E5FF01C07B
:104AB000E5FF02C0E5FF03C0E5FF04C0E5FF05C058
:104AC000E5FF06C0E5FF07C0E5FF08C0E5FF09C038
:104AD000E5FF0AC0E5FF0BC0E5FF0CC0E5FF0DC018
:104AE000E5FF020EDBCF00F0030EDBCF01F0040E7A
:104AF000DBCF02F0050EDBCF03F0060EDBCF04F0B8
:104B0000070EDBCF05F0080EDBCF06F0090EDBCF7A
:104B100007F0D88003AED890086A083608500FE036
:104B2000031C0C6E021C0B6E011C0A6E001C096E2D
:104B3000092A0DE10A2A0BE10B4A0C2A08D000C011
:104B400009F001C00AF002C00BF003C00CF0D880DD
:104B500007AED890006A003600500FE0071C0D6EBB
:104B6000061C036E051C026E041C016E012A0DE179
:104B7000022A0BE1034A0D2A08D004C001F005C047
:104B800002F006C003F007C00DF00D50E56E0350B3
:104B9000E56E0250E56E0150E56E0C50E56E0B506F
:104BA000E56E0A50E56E0950E56E5CEC2AF0016E88
:104BB000F3CF02F0F4CF03F0E9CF04F0080EE126C2
:104BC0000050081A085016E0041C076E031C066EFD
:104BD000021C056E011C006E002A04E1052A02E198
:104BE000064A072A07C0E9FF06C0F4FF05C0F3FF25
:104BF000005007D004C0E9FF03C0F4FF02C0F3FF78
:104C00000150E4CF0DF0E4CF0CF0E4CF0BF0E4CF93
:104C10000AF0E4CF09F0E4CF08F0E4CF07F0E4CFE6
:104C200006F0E4CF05F0E4CF04F0E4CF03F0E4CFE6
:104C300002F0E4CF01F0E4CF00F0E4CFD9FF12009E
:104C4000D9CFE5FFE1CFD9FF00C0E5FF01C0E5FF07
:104C500002C0E5FF03C0E5FF04C0E5FF05C0E5FFB6
:104C600006C0E5FF07C0E5FF08C0E5FF020EDBCF89
:104C700000F0030EDBCF01F0040EDBCF02F00401E5
:104C800036513711D8B446D00050020DF450046E9E
:104C9000F3CF03F0E80E0326040E04220150FF08B0
:104CA000056EFF0E0254E56AE56AE56E0550E56E95
:104CB000E56AE56A5D0EE56EC00EE56E7CEC21F0FE
:104CC000056EF3CF06F0F4CF07F0E9CF08F0080E39
:104CD000E126E56AE56AE568E5680850E56E075093
:104CE000E56E0650E56E0550E56E5CEC2AF0056E4B
:104CF000F3CF06F0080EE126280E0526230E062225
:104D0000000E03C0E9FF04C0EAFF05C0EEFF06C0C5
:104D1000EFFF46D00050020DF450036EF3CF00F0C9
:104D2000E80E0026040E03220150FF08016EFF0E5C
:104D30000256E56AE56A0250E56E0150E56EE56AE5
:104D4000E56A790EE56E180EE56E7CEC21F0016ED9
:104D5000F3CF02F0F4CF04F0E9CF05F0080EE1261E
:104D6000E56AE56AE568E5680550E56E0450E56EBC
:104D70000250E56E0150E56E5CEC2AF0016EF3CF57
:104D800002F0080EE126400E01261F0E0222000E40
:104D900000C0E9FF03C0EAFF01C0EEFF02C0EFFF61
:104DA00004013585E4CF08F0E4CF07F0E4CF06F046
:104DB000E4CF05F0E4CF04F0E4CF03F0E4CF02F059
:104DC000E4CF01F0E4CF00F0E4CFD9FF120000C03F
:104DD000E5FF01C0E5FF02C0E5FF03C0E5FF04C039
:104DE000E5FF05C0E5FF006A650E0024016E026A5A
:104DF0000A0E022201C0E9FF02C0EAFFEFCF01F074
:104E00000150FF0A01E178D001380F0B026E036AEE
:104E1000800E02260F0E032202C0E9FF03C0EAFF44
:104E2000EFCF02F0070E0116010E036E000E046EA6
:104E3000015006E0E86CD89003360436010FFCE31D
:104E4000056A0250031605500416035005E104508C
:104E500003E1036A032A01D0036A0350D880E8669D
:104E6000D890036A0336035024E00038E8441F0B4F
:104E7000016E026AEE0E01260A0E022201C0E9FF4F
:104E800002C0EAFFEFCF03F0070E0014046E010E1C
:104E9000056E045005E0E86CD8900536010FFDE37F
:104EA0000550031201C0E9FF02C0EAFF03C0EFFF93
:104EB00023D00038E8441F0B016E026AEE0E012673
:104EC0000A0E022201C0E9FF02C0EAFFEFCF03F0A1
:104ED000070E0014046E010E056E045005E0E86C28
:104EE000D8900536010FFDE3051C031601C0E9FF4C
:104EF00002C0EAFF03C0EFFF002A100E005CD8A03A
:104F000073D7E4CF05F0E4CF04F0E4CF03F0E4CFAF
:104F100002F0E4CF01F0E4CF00F01200D9CFE5FFBA
:104F2000E1CFD9FF00C0E5FF01C0E5FF02C0E5FF0A
:104F300003C0E5FF04C0E5FF05C0E5FF06C0E5FFCF
:104F400007C0E5FF020EDBCF00F0030EDBCF01F060
:104F5000040EDBCF02F000500B0F036E000E012099
:104F6000046E000E0220E56AF46AF66AF76A03C06E
:104F7000E9FF04C0F3FF70EC39F00050070F036E37
:104F8000000E0120046E000E0220056E0050030F7B
:104F9000066E000E0120076E000E0220E56AF46A1C
:104FA000F66AF76A06C0E9FF07C0F3FF70EC39F054
:104FB000E56AF46AF66AF76A03C0E9FF04C0F3FF22
:104FC000055070EC39F00050010F036E000E012007
:104FD000046E000E0220056E0050020F066E000ED9
:104FE0000120076E000E0220E56A06C0E9FF07C037
:104FF000F3FFDDEC39F0E56A03C0E9FF04C0F3FF1D
:105000000550DDEC39F0E56A00C0E9FF01C0F3FFAF
:105010000250DDEC39F0E4CF07F0E4CF06F0E4CF46
:1050200005F0E4CF04F0E4CF03F0E4CF02F0E4CFE6
:1050300001F0E4CF00F0E4CFD9FF12002564202571
:10504000640A0000D9CFE5FFE1CFD9FF00C0E5FF3A
:1050500001C0E5FF02C0E5FF03C0E5FF04C0E5FFB6
:1050600005C0E5FF06C0E5FF07C0E5FF08C0E5FF96
:1050700009C0E5FF0AC0E5FF020EDBCF00F0030E1A
:10508000DBCF01F0040EDBCF02F0050EDBCF03F027
:10509000060EDBCF04F0070EDBCF05F0080EDBCFEA
:1050A00006F0090EDBCF07F0086A096A0750800B8B
:1050B000E8440A6E0A501BE1045004260536063601
:1050C00007360750035C08E10650025C05E1055015
:1050D000015C02E10450005C06E2D890073206321F
:1050E0000532043204D0092A09C008F0DFD707507E
:1050F000035C08E10650025C05E10550015C02E139
:105100000450005C08E30450005E0550015A06504C
:10511000025A0750035AD890073206320532043239
:1051200008C009F008060950E2E103C0E9FF02C027
:10513000F4FF01C0F3FF0050E4CF0AF0E4CF09F020
:10514000E4CF08F0E4CF07F0E4CF06F0E4CF05F0B9
:10515000E4CF04F0E4CF03F0E4CF02F0E4CF01F0B9
:10516000E4CF00F0E4CFD9FF120000C0E5FF01C09A
:10517000E5FF03C0E5FF04C0E5FF05C0E5FF06C08D
:10518000E5FF07C0E5FF08C0E5FF09C0E5FF0AC06D
:10519000E5FF0BC0E5FFDECA00F0DFCA01F00A013F
:1051A000DE3F01D0DF2B0050E56E90EC39F0E65287
:1051B000076E046A056A066ADECA00F0DFCA01F0FB
:1051C0000A01DE3F01D0DF2B0050E56E90EC39F094
:1051D000E6520B6A0A6E086A0850041205120A5059
:1051E00006120B500712DECA00F0DFCA01F00A01F6
:1051F000DE3F01D0DF2B0050E56E90EC39F0E65237
:10520000036E006A03C001F0E86A03BEFF0E086E79
:10521000096E005004120150051208500612095080
:105220000712DECA00F0DFCA01F00A01DE3F01D03A
:10523000DF2B0050E56E90EC39F0E652016A041263
:10524000015005120612071207C0E9FF06C0F4FF5D
:1052500005C0F3FF0450E4CF0BF0E4CF0AF0E4CF35
:1052600009F0E4CF08F0E4CF07F0E4CF06F0E4CF94
:1052700005F0E4CF04F0E4CF03F0E4CF01F0E4CF95
:1052800000F0120000C0E5FF01C0E5FF02C0E5FF2D
:1052900003C0E5FF04C0E5FF0A01F6510A01F51954
:1052A00001E15FD0F6CA00F0002A009E600E0024E3
:1052B000016E026A000E022201C0E9FF02C0EAFF8D
:1052C000EFCF01F11F0E01010117F6CA00F10151E4
:1052D00001010027002B002B009FB8EC36F0016E77
:1052E000015003E1016A012A01D0016AB8EC36F0ED
:1052F0000101016F800E0115026E1F0E0115036E74
:1053000003C004F003C001F1045003E1F5CAF6FA4A
:105310003BD001501BE0025022E0B8EC36F0006EAA
:10532000010101070050420A1AE000504E0A03E151
:105330001BEC33F014D00050460A03E1D2EC39F0F4
:105340000ED00050490A0BE1FF0009D0F6CA02F165
:10535000025003E004EC35F002D0E2EC36F000C17C
:10536000F6FA0A0177510A01781906E00A01F751A5
:1053700003E173EC2BF008D089BA06D00A01F7518B
:1053800003E172B29EEC39F0E4CF04F0E4CF03F015
:10539000E4CF02F0E4CF01F0E4CF00F01200D9CF67
:1053A000E5FFE1CFD9FF00C0E5FF01C0E5FF02C086
:1053B000E5FF03C0E5FF04C0E5FF05C0E5FF06C04B
:1053C000E5FF07C0E5FF08C0E5FF0BC0E5FF0CC027
:1053D000E5FF0DC0E5FF020EDBCF00F0030EDBCFD3
:1053E00001F0040EDBCF02F0050EDBCF03F0060E5A
:1053F000DBCF04F003C0E5FF04C0F4FF00C0E9FF09
:1054000001C0F3FF0250BAEC39F00050020F056EF4
:10541000000E0120066E000E0220076EE86A04BE30
:10542000FF0E086E04500C6E0C2608340D6ED890DA
:105430000C360D360344E844FC0B0B6E0350E84475
:10544000E844030B0C12E56A0BC0F4FF0CC0F6FF36
:105450000DC0F7FF05C0E9FF06C0F3FF075070EC71
:1054600039F0080E0026000E01220222E56AF46AD5
:10547000F66AF76A00C0E9FF01C0F3FF025070EC62
:1054800039F0E4CF0DF0E4CF0CF0E4CF0BF0E4CF33
:1054900008F0E4CF07F0E4CF06F0E4CF05F0E4CF66
:1054A00004F0E4CF03F0E4CF02F0E4CF01F0E4CF66
:1054B00000F0E4CFD9FF1200D9CFE5FFE1CFD9FF4B
:1054C00000C0E5FF01C0E5FF02C0E5FF03C0E5FF46
:1054D00004C0E5FF05C0E5FF06C0E5FF07C0E5FF26
:1054E00008C0E5FF09C0E5FF0AC0E5FF0BC0E5FF06
:1054F0000CC0E5FF0DC0E5FF020EDBCF00F0030E90
:10550000DBCF01F0040EDBCF02F0050EDBCF03F0A2
:10551000060EDBCF04F0070EDBCF05F0080EDBCF65
:1055200006F0090EDBCF07F0086A096A0A6A0B6AFF
:10553000200E0C6E0350800BE8440D6E00500026C8
:105540000136023603360850082609360A360B366D
:105550000D50D8A4088007500B5C08E106500A5C87
:1055600005E10550095C02E10450085C09E30450C0
:10557000085E0550095A06500A5A07500B5A008017
:105580000C2ED8D703C0E9FF02C0F4FF01C0F3FF1F
:105590000050E4CF0DF0E4CF0CF0E4CF0BF0E4CFFB
:1055A0000AF0E4CF09F0E4CF08F0E4CF07F0E4CF4D
:1055B00006F0E4CF05F0E4CF04F0E4CF03F0E4CF4D
:1055C00002F0E4CF01F0E4CF00F0E4CFD9FF120005
:1055D00000C0E5FF01C0E5FF02C0E5FF03C0E5FF35
:1055E00004C0E5FF05C0E5FF0401356B0F014E6BFC
:1055F0000F014E8B4E837F824E917E927D82006A98
:10560000016A026AE80E0124036E040E0220046E91
:1056100003C0E9FF04C0EAFFEE68EF688A0E0024C9
:10562000036E046A040E042203C0E9FF04C0EAFF0B
:1056300000C0EFFF020E0126D8B0022A002A080E91
:10564000005CE0E39384810E006E0F0E016E0F0E7E
:10565000036E380E0026035001220F0E036E800EDB
:10566000005E0350015A810E026E0F0E036E0F0E84
:10567000056E380E0226055003220F0E056E800EB1
:10568000025E0550035A02C0E9FF03C0EAFFEFCFF4
:1056900002F0029400C0E9FF01C0EAFF02C0EFFF80
:1056A000F188F08EF092F0888B928B968B988B9A83
:1056B00004018995899589958995949294969498F1
:1056C000949A04019295929592959295E4CF05F063
:1056D000E4CF04F0E4CF03F0E4CF02F0E4CF01F034
:1056E000E4CF00F0120000C0E5FF01C0E5FF02C0FA
:1056F000E5FF03C0E5FF72A276D0C4EC37F0006E80
:10570000005005E10A01786B0A01776B6CD078CA0A
:1057100001F000500126C4EC37F0026E0006025082
:10572000230A1FE1010E005CD8A05BD0C4EC37F067
:10573000026E690A03E108EC36F053D00250720A97
:1057400003E19EEC39F04DD00250730A01E049D0DC
:10575000898A7186A38AA39874507450719871884D
:1057600040D00250430A05E00250420A01E039D01D
:1057700001D0008E00C0F9FA00500F01006F010E39
:105780000A01FA6F0A017851011814E0C4EC37F0ED
:10579000026E0A01F927000E0A01FA25006E036A5B
:1057A0000F0E032200C0E9FF03C0EAFF02C0EFFFB3
:1057B000FA2BE8D7000E0A01FA25006E026A0F0ED6
:1057C00002220A01F91D036E032A00C0E9FF02C08C
:1057D000EAFF03C0EFFF0A01FA2BFACAF7FA0A013F
:1057E000F16B01C078FAE4CF03F0E4CF02F0E4CF2C
:1057F00001F0E4CF00F01200D9CFE5FFE1CFD9FFEF
:1058000000C0E5FF01C0E5FF02C0E5FF03C0E5FF02
:1058100004C0E5FF05C0E5FF06C0E5FF07C0E5FFE2
:10582000020EDBCF00F0030EDBCF01F0040EDBCF66
:1058300002F0050EDBCF03F002C006F00650046E46
:10584000800A33E100C0E9FF01C0F3FF02503BECE6
:1058500038F0056EF3CF06F0F4CF07F003C0E5FF94
:1058600005C0E9FF06C0F3FF0750DDEC39F000C0CA
:10587000E9FF01C0F3FF02503BEC38F0056EF3CFB7
:1058800006F0F4CF07F0052A02E3064A072A05C00E
:10589000E5FF06C0F4FF07C0F6FF00C0E9FF01C046
:1058A000F3FF025081EC39F01DD004AA1BD0047A1A
:1058B000045004E1035013EC3AF014D00450010AF0
:1058C00004E1035002EC00F00DD004500F0A04E193
:1058D0000350D7EC35F006D004500E0A03E1035014
:1058E00026EC3AF0E4CF07F0E4CF06F0E4CF05F081
:1058F000E4CF04F0E4CF03F0E4CF02F0E4CF01F012
:10590000E4CF00F0E4CFD9FF1200D9CFE5FFE1CF1B
:10591000D9FF00C0E5FF01C0E5FF02C0E5FF03C0FD
:10592000E5FF04C0E5FF05C0E5FF06C0E5FF07C0D1
:10593000E5FF08C0E5FF09C0E5FF0AC0E5FF0BC0B1
:10594000E5FF0CC0E5FF020EDBCF00F0030EDBCF5E
:1059500001F0040EDBCF02F0050EDBCF03F0060EE4
:10596000DBCF04F0070EDBCF05F0080EDBCF06F02F
:10597000090EDBCF07F002500A6E0150096E00508D
:10598000086E06C00BF007C00CF0FF0E06260722BB
:105990000B500C101AE003C0E9FF04C0F3FF0550E0
:1059A0005FEC39F00B6E032A02E3044A052A0BC0B0
:1059B000E5FF08C0E9FF09C0F3FF0A50DDEC39F04C
:1059C000082ADFE3094A0A2ADCD702C0F4FF01C033
:1059D000F3FF0050E4CF0CF0E4CF0BF0E4CF0AF07B
:1059E000E4CF09F0E4CF08F0E4CF07F0E4CF06F00D
:1059F000E4CF05F0E4CF04F0E4CF03F0E4CF02F00D
:105A0000E4CF01F0E4CF00F0E4CFD9FF1200D9CF0A
:105A1000E5FFE1CFD9FF00C0E5FF01C0E5FF02C00F
:105A2000E5FF03C0E5FF04C0E5FF05C0E5FF06C0D4
:105A3000E5FF07C0E5FF020EDBCF00F0030EDBCF72
:105A400001F0040EDBCF02F0050EDBCF03F078CAC5
:105A500079FA0A0177510A01795F790703C004F0E6
:105A6000056A030E0426D8B0052A79CA06F0076A2B
:105A70000750800FF36E0550800FF35C02E1045075
:105A8000065C02E2E8682BD0020E035C02E2E86AE0
:105A900026D003060350E56E19EC34F0E652046A92
:105AA0000350045C14E204500024056EE86A0120EF
:105AB000066EE86A022005C0E9FF06C0F3FF5FEC4E
:105AC00039F0042AE56E19EC34F0E652E9D778CAC9
:105AD00079FA0A0177510A01795F7907E86AE4CF18
